{"contracts/PredictionMarket.sol":{"PredictionMarket":{"abi":[{"inputs":[{"internalType":"address","name":"_feePool","type":"address"}],"stateMutability":"nonpayable","type":"constructor"},{"anonymous":false,"inputs":[{"indexed":true,"internalType":"uint256","name":"betId","type":"uint256"},{"indexed":true,"internalType":"address","name":"user","type":"address"},{"indexed":false,"internalType":"address","name":"token","type":"address"},{"indexed":false,"internalType":"uint256","name":"amount","type":"uint256"},{"indexed":false,"internalType":"bool","name":"predictUp","type":"bool"},{"indexed":false,"internalType":"uint256","name":"duration","type":"uint256"}],"name":"BetPlaced","type":"event"},{"anonymous":false,"inputs":[{"indexed":true,"internalType":"uint256","name":"betId","type":"uint256"},{"indexed":true,"internalType":"address","name":"user","type":"address"},{"indexed":false,"internalType":"bool","name":"won","type":"bool"},{"indexed":false,"internalType":"uint256","name":"reward","type":"uint256"}],"name":"BetResolved","type":"event"},{"anonymous":false,"inputs":[{"indexed":true,"internalType":"address","name":"token","type":"address"},{"indexed":false,"internalType":"uint256","name":"price","type":"uint256"},{"indexed":false,"internalType":"uint256","name":"timestamp","type":"uint256"}],"name":"PriceUpdated","type":"event"},{"anonymous":false,"inputs":[{"indexed":true,"internalType":"address","name":"token","type":"address"}],"name":"TokenAdded","type":"event"},{"inputs":[],"name":"activeBets","outputs":[{"internalType":"uint256","name":"","type":"uint256"}],"stateMutability":"view","type":"function"},{"inputs":[{"internalType":"address","name":"token","type":"address"}],"name":"addAllowedToken","outputs":[],"stateMutability":"nonpayable","type":"function"},{"inputs":[{"internalType":"address","name":"","type":"address"}],"name":"allowedTokens","outputs":[{"internalType":"bool","name":"","type":"bool"}],"stateMutability":"view","type":"function"},{"inputs":[],"name":"betCounter","outputs":[{"internalType":"uint256","name":"","type":"uint256"}],"stateMutability":"view","type":"function"},{"inputs":[{"internalType":"uint256","name":"","type":"uint256"}],"name":"bets","outputs":[{"internalType":"address","name":"user","type":"address"},{"internalType":"address","name":"token","type":"address"},{"internalType":"uint256","name":"amount","type":"uint256"},{"internalType":"uint256","name":"initialPrice","type":"uint256"},{"internalType":"uint256","name":"finalPrice","type":"uint256"},{"internalType":"uint256","name":"startTime","type":"uint256"},{"internalType":"uint256","name":"endTime","type":"uint256"},{"internalType":"bool","name":"predictUp","type":"bool"},{"internalType":"enum PredictionMarket.BetStatus","name":"status","type":"uint8"}],"stateMutability":"view","type":"function"},{"inputs":[{"internalType":"uint256","name":"betId","type":"uint256"}],"name":"cancelBet","outputs":[],"stateMutability":"nonpayable","type":"function"},{"inputs":[{"internalType":"address","name":"","type":"address"}],"name":"currentPrices","outputs":[{"internalType":"uint256","name":"","type":"uint256"}],"stateMutability":"view","type":"function"},{"inputs":[],"name":"feePool","outputs":[{"internalType":"contract FeePool","name":"","type":"address"}],"stateMutability":"view","type":"function"},{"inputs":[],"name":"getActiveBetsCount","outputs":[{"internalType":"uint256","name":"","type":"uint256"}],"stateMutability":"view","type":"function"},{"inputs":[],"name":"getAllowedTokens","outputs":[{"internalType":"address[]","name":"","type":"address[]"}],"stateMutability":"view","type":"function"},{"inputs":[{"internalType":"uint256","name":"betId","type":"uint256"}],"name":"getBet","outputs":[{"internalType":"address","name":"user","type":"address"},{"internalType":"address","name":"token","type":"address"},{"internalType":"uint256","name":"amount","type":"uint256"},{"internalType":"uint256","name":"initialPrice","type":"uint256"},{"internalType":"uint256","name":"finalPrice","type":"uint256"},{"internalType":"uint256","name":"startTime","type":"uint256"},{"internalType":"uint256","name":"endTime","type":"uint256"},{"internalType":"bool","name":"predictUp","type":"bool"},{"internalType":"enum PredictionMarket.BetStatus","name":"status","type":"uint8"}],"stateMutability":"view","type":"function"},{"inputs":[{"internalType":"address","name":"token","type":"address"}],"name":"getPrice","outputs":[{"internalType":"uint256","name":"price","type":"uint256"},{"internalType":"uint256","name":"lastUpdate","type":"uint256"}],"stateMutability":"view","type":"function"},{"inputs":[{"internalType":"address","name":"user","type":"address"}],"name":"getUserBets","outputs":[{"internalType":"uint256[]","name":"","type":"uint256[]"}],"stateMutability":"view","type":"function"},{"inputs":[{"internalType":"address","name":"","type":"address"}],"name":"lastPriceUpdate","outputs":[{"internalType":"uint256","name":"","type":"uint256"}],"stateMutability":"view","type":"function"},{"inputs":[],"name":"maxBetAmount","outputs":[{"internalType":"uint256","name":"","type":"uint256"}],"stateMutability":"view","type":"function"},{"inputs":[],"name":"maxDuration","outputs":[{"internalType":"uint256","name":"","type":"uint256"}],"stateMutability":"view","type":"function"},{"inputs":[],"name":"minBetAmount","outputs":[{"internalType":"uint256","name":"","type":"uint256"}],"stateMutability":"view","type":"function"},{"inputs":[],"name":"minDuration","outputs":[{"internalType":"uint256","name":"","type":"uint256"}],"stateMutability":"view","type":"function"},{"inputs":[],"name":"owner","outputs":[{"internalType":"address","name":"","type":"address"}],"stateMutability":"view","type":"function"},{"inputs":[{"internalType":"address","name":"token","type":"address"},{"internalType":"uint256","name":"amount","type":"uint256"},{"internalType":"bool","name":"predictUp","type":"bool"},{"internalType":"uint256","name":"duration","type":"uint256"}],"name":"placeBet","outputs":[{"internalType":"uint256","name":"betId","type":"uint256"}],"stateMutability":"nonpayable","type":"function"},{"inputs":[],"name":"priceOracle","outputs":[{"internalType":"address","name":"","type":"address"}],"stateMutability":"view","type":"function"},{"inputs":[{"internalType":"uint256","name":"betId","type":"uint256"}],"name":"resolveBet","outputs":[],"stateMutability":"nonpayable","type":"function"},{"inputs":[{"internalType":"address","name":"_feePool","type":"address"}],"name":"setFeePool","outputs":[],"stateMutability":"nonpayable","type":"function"},{"inputs":[{"internalType":"address","name":"_oracle","type":"address"}],"name":"setPriceOracle","outputs":[],"stateMutability":"nonpayable","type":"function"},{"inputs":[{"internalType":"uint256","name":"","type":"uint256"}],"name":"tokenList","outputs":[{"internalType":"address","name":"","type":"address"}],"stateMutability":"view","type":"function"},{"inputs":[],"name":"totalBets","outputs":[{"internalType":"uint256","name":"","type":"uint256"}],"stateMutability":"view","type":"function"},{"inputs":[],"name":"totalVolume","outputs":[{"internalType":"uint256","name":"","type":"uint256"}],"stateMutability":"view","type":"function"},{"inputs":[{"internalType":"uint256","name":"_minBet","type":"uint256"},{"internalType":"uint256","name":"_maxBet","type":"uint256"},{"internalType":"uint256","name":"_minDuration","type":"uint256"},{"internalType":"uint256","name":"_maxDuration","type":"uint256"}],"name":"updateLimits","outputs":[],"stateMutability":"nonpayable","type":"function"},{"inputs":[{"internalType":"address","name":"token","type":"address"},{"internalType":"uint256","name":"price","type":"uint256"}],"name":"updatePrice","outputs":[],"stateMutability":"nonpayable","type":"function"},{"inputs":[{"internalType":"address[]","name":"tokens","type":"address[]"},{"internalType":"uint256[]","name":"prices","type":"uint256[]"}],"name":"updatePrices","outputs":[],"stateMutability":"nonpayable","type":"function"},{"inputs":[{"internalType":"address","name":"","type":"address"},{"internalType":"uint256","name":"","type":"uint256"}],"name":"userBets","outputs":[{"internalType":"uint256","name":"","type":"uint256"}],"stateMutability":"view","type":"function"}],"evm":{"bytecode":{"linkReferences":{},"object":"608060405266038d7ea4c68000600a55683635c9adc5dea00000600b55603c600c5562015180600d5534801561003457600080fd5b50604051611e7c380380611e7c83398101604081905261005391610093565b60008054336001600160a01b03199182168117909255600280548216909217909155600180549091166001600160a01b03929092169190911790556100c3565b6000602082840312156100a557600080fd5b81516001600160a01b03811681146100bc57600080fd5b9392505050565b611daa806100d26000396000f3fe608060405234801561001057600080fd5b50600436106101e55760003560e01c80635f81a57c1161010f578063ae2e933b116100a2578063e744092e11610071578063e744092e146104fc578063ed53afa31461052f578063fa968eea14610537578063fbb55ed21461054057600080fd5b8063ae2e933b146104b7578063befa1e2f146104ca578063cab11d5d146104d3578063d29048e7146104dc57600080fd5b806396f77060116100de57806396f77060146104685780639ead72221461047b578063a279cb561461048e578063a416f5ab146104ae57600080fd5b80635f81a57c146104305780636db5c8fd146104395780638068aa68146104425780638da5cb5b1461045557600080fd5b8063312892bd11610187578063457972de11610156578063457972de146103ee5780634c36c36e14610401578063530e784f14610414578063567157611461042757600080fd5b8063312892bd1461036a578063357401f51461037d5780634178617f1461039057806341976e09146103a357600080fd5b806319db2228116101c357806319db22281461029f57806322af00fa146102b45780632630c12f1461031f5780632d56657d1461034a57600080fd5b8063024ece89146101ea578063032ee40514610208578063061e494f1461021f575b600080fd5b6101f2610553565b6040516101ff919061194f565b60405180910390f35b61021160105481565b6040519081526020016101ff565b61028a61022d36600461199c565b6000908152600760208190526040909120805460018201546002830154600384015460048501546005860154600687015496909701546001600160a01b0395861698959094169692959194909360ff808216926101009092041690565b6040516101ff999897969594939291906119cb565b6102b26102ad366004611a5e565b6105b5565b005b61028a6102c236600461199c565b6007602081905260009182526040909120805460018201546002830154600384015460048501546005860154600687015496909701546001600160a01b039586169795909416959294919390929060ff8082169161010090041689565b600254610332906001600160a01b031681565b6040516001600160a01b0390911681526020016101ff565b61035d610358366004611a5e565b610652565b6040516101ff9190611a80565b610211610378366004611ac9565b6106be565b6102b261038b36600461199c565b610b6d565b6102b261039e366004611a5e565b610eb5565b6103d96103b1366004611a5e565b6001600160a01b03166000908152600560209081526040808320546006909252909120549091565b604080519283526020830191909152016101ff565b6102b26103fc366004611b0f565b611010565b6102b261040f36600461199c565b61116c565b6102b2610422366004611a5e565b6115b6565b610211600c5481565b610211600f5481565b610211600d5481565b610211610450366004611b0f565b61164a565b600054610332906001600160a01b031681565b6102b2610476366004611b85565b61167b565b61033261048936600461199c565b6118e7565b61021161049c366004611a5e565b60056020526000908152604090205481565b61021160085481565b600154610332906001600160a01b031681565b610211600e5481565b610211600b5481565b6102116104ea366004611a5e565b60066020526000908152604090205481565b61051f61050a366004611a5e565b60036020526000908152604090205460ff1681565b60405190151581526020016101ff565b601054610211565b610211600a5481565b6102b261054e366004611bf1565b611911565b606060048054806020026020016040519081016040528092919081815260200182805480156105ab57602002820191906000526020600020905b81546001600160a01b0316815260019091019060200180831161058d575b5050505050905090565b6000546001600160a01b031633146105e85760405162461bcd60e51b81526004016105df90611c23565b60405180910390fd5b6001600160a01b0381166106305760405162461bcd60e51b815260206004820152600f60248201526e496e76616c6964206164647265737360881b60448201526064016105df565b600180546001600160a01b0319166001600160a01b0392909216919091179055565b6001600160a01b0381166000908152600960209081526040918290208054835181840281018401909452808452606093928301828280156106b257602002820191906000526020600020905b81548152602001906001019080831161069e575b50505050509050919050565b60115460009060ff16156106e45760405162461bcd60e51b81526004016105df90611c47565b6011805460ff191660011790556001600160a01b03851660009081526003602052604090205460ff1661074d5760405162461bcd60e51b8152602060048201526011602482015270151bdad95b881b9bdd08185b1b1bddd959607a1b60448201526064016105df565b600a5484101580156107615750600b548411155b61079e5760405162461bcd60e51b815260206004820152600e60248201526d125b9d985b1a5908185b5bdd5b9d60921b60448201526064016105df565b600c5482101580156107b25750600d548211155b6107f15760405162461bcd60e51b815260206004820152601060248201526f24b73b30b634b210323ab930ba34b7b760811b60448201526064016105df565b6001600160a01b03851660009081526005602052604090205461084c5760405162461bcd60e51b81526020600482015260136024820152725072696365206e6f7420617661696c61626c6560681b60448201526064016105df565b6001600160a01b038516600090815260066020526040902054610e10906108739042611c81565b106108b05760405162461bcd60e51b815260206004820152600d60248201526c141c9a58d9481d1bdbc81bdb19609a1b60448201526064016105df565b6040516323b872dd60e01b8152336004820152306024820152604481018590526001600160a01b038616906323b872dd906064016020604051808303816000875af1158015610903573d6000803e3d6000fd5b505050506040513d601f19601f820116820180604052508101906109279190611c9a565b6109435760405162461bcd60e51b81526004016105df90611cb7565b6008805490600061095383611ce0565b919050559050604051806101200160405280336001600160a01b03168152602001866001600160a01b0316815260200185815260200160056000886001600160a01b03166001600160a01b031681526020019081526020016000205481526020016000815260200142815260200183426109cd9190611cf9565b8152841515602082015260400160009052600082815260076020818152604092839020845181546001600160a01b03199081166001600160a01b039283161783559286015160018301805490941691161790915591830151600283015560608301516003808401919091556080840151600484015560a0840151600584015560c0840151600684015560e0840151918301805460ff19811693151593841782556101008087015194929361ffff1990921661ff00199093169290921791908490811115610a9c57610a9c6119b5565b0217905550503360009081526009602090815260408220805460018101825590835290822001839055600e8054925090610ad583611ce0565b919050555083600f6000828254610aec9190611cf9565b909155505060108054906000610b0183611ce0565b9091555050604080516001600160a01b03871681526020810186905284151581830152606081018490529051339183917fb6aa03aea3db5922679c3c4d4e12d294e40e1d3c3a917cdc05001d6594873a9a9181900360800190a36011805460ff19169055949350505050565b60115460ff1615610b905760405162461bcd60e51b81526004016105df90611c47565b6011805460ff19166001179055600081815260076020526040902080546001600160a01b03163314610bf35760405162461bcd60e51b815260206004820152600c60248201526b139bdd081e5bdd5c8818995d60a21b60448201526064016105df565b60006007820154610100900460ff166003811115610c1357610c136119b5565b14610c515760405162461bcd60e51b815260206004820152600e60248201526d426574206e6f742061637469766560901b60448201526064016105df565b80600601544210610c985760405162461bcd60e51b815260206004820152601160248201527010995d08185b1c9958591e48195b991959607a1b60448201526064016105df565b60078101805461ff0019166103001790556002810154600090610cbd90600a90611d0c565b90506000818360020154610cd19190611c81565b90508115610dc057600183810154905460405163095ea7b360e01b81526001600160a01b0391821660048201526024810185905291169063095ea7b3906044016020604051808303816000875af1158015610d30573d6000803e3d6000fd5b505050506040513d601f19601f82011682018060405250810190610d549190611c9a565b506001805490840154604051631dc1a8e960e11b81526001600160a01b03918216600482015260248101859052911690633b8351d290604401600060405180830381600087803b158015610da757600080fd5b505af1158015610dbb573d6000803e3d6000fd5b505050505b600183015460405163a9059cbb60e01b8152336004820152602481018390526001600160a01b039091169063a9059cbb906044016020604051808303816000875af1158015610e13573d6000803e3d6000fd5b505050506040513d601f19601f82011682018060405250810190610e379190611c9a565b610e535760405162461bcd60e51b81526004016105df90611cb7565b60108054906000610e6383611d2e565b90915550506040805160008082526020820152339186917fd1a7f8e02608013b9bd7679e3e05ad532e9c83829a935961f6eb37606a252585910160405180910390a350506011805460ff191690555050565b6000546001600160a01b03163314610edf5760405162461bcd60e51b81526004016105df90611c23565b6001600160a01b038116610f255760405162461bcd60e51b815260206004820152600d60248201526c24b73b30b634b2103a37b5b2b760991b60448201526064016105df565b6001600160a01b03811660009081526003602052604090205460ff1615610f845760405162461bcd60e51b8152602060048201526013602482015272151bdad95b88185b1c9958591e481859191959606a1b60448201526064016105df565b6001600160a01b038116600081815260036020526040808220805460ff1916600190811790915560048054918201815583527f8a35acfbc15ff81a39ae7d344fd709f28e8600b4aa8c65c6b64bfe7fe36bd19b0180546001600160a01b03191684179055517f784c8f4dbf0ffedd6e72c76501c545a70f8b203b30a26ce542bf92ba87c248a49190a250565b6002546001600160a01b031633148061103357506000546001600160a01b031633145b61106d5760405162461bcd60e51b815260206004820152600b60248201526a4f6e6c79206f7261636c6560a81b60448201526064016105df565b6001600160a01b03821660009081526003602052604090205460ff166110c95760405162461bcd60e51b8152602060048201526011602482015270151bdad95b881b9bdd08185b1b1bddd959607a1b60448201526064016105df565b600081116111095760405162461bcd60e51b815260206004820152600d60248201526c496e76616c696420707269636560981b60448201526064016105df565b6001600160a01b0382166000818152600560209081526040808320859055600682529182902042908190558251858152918201527fb556fac599c3c70efb9ab1fa725ecace6c81cc48d1455f886607def065f3e0c0910160405180910390a25050565b60115460ff161561118f5760405162461bcd60e51b81526004016105df90611c47565b6011805460ff191660011790556000818152600760205260408120906007820154610100900460ff1660038111156111c9576111c96119b5565b146112075760405162461bcd60e51b815260206004820152600e60248201526d426574206e6f742061637469766560901b60448201526064016105df565b806006015442101561124b5760405162461bcd60e51b815260206004820152600d60248201526c10995d081b9bdd08195b991959609a1b60448201526064016105df565b60018101546001600160a01b03166000908152600560205260409020546112aa5760405162461bcd60e51b81526020600482015260136024820152725072696365206e6f7420617661696c61626c6560681b60448201526064016105df565b60018101546001600160a01b031660009081526005602052604081205460048301819055600383015460078401549111919060ff1680156112e85750815b806113015750600783015460ff16158015611301575081155b90506000811561143f5760078401805461010061ff001990911617905560018401548454600286015460405163a9059cbb60e01b81526001600160a01b039283166004820152602481019190915291169063a9059cbb906044016020604051808303816000875af115801561137a573d6000803e3d6000fd5b505050506040513d601f19601f8201168201806040525081019061139e9190611c9a565b6113ba5760405162461bcd60e51b81526004016105df90611cb7565b6001805485549186015460405163f4fd47cf60e01b81526001600160a01b039384166004820152908316602482015291169063f4fd47cf906044016020604051808303816000875af1158015611414573d6000803e3d6000fd5b505050506040513d601f19601f820116820180604052508101906114389190611d45565b9050611545565b60078401805461020061ff00199091161790556001808501549054600286015460405163095ea7b360e01b81526001600160a01b039283166004820152602481019190915291169063095ea7b3906044016020604051808303816000875af11580156114af573d6000803e3d6000fd5b505050506040513d601f19601f820116820180604052508101906114d39190611c9a565b5060018054908501546002860154604051631dc1a8e960e11b81526001600160a01b0392831660048201526024810191909152911690633b8351d290604401600060405180830381600087803b15801561152c57600080fd5b505af1158015611540573d6000803e3d6000fd5b505050505b6010805490600061155583611d2e565b90915550508354604080518415158152602081018490526001600160a01b039092169187917fd1a7f8e02608013b9bd7679e3e05ad532e9c83829a935961f6eb37606a252585910160405180910390a350506011805460ff19169055505050565b6000546001600160a01b031633146115e05760405162461bcd60e51b81526004016105df90611c23565b6001600160a01b0381166116285760405162461bcd60e51b815260206004820152600f60248201526e496e76616c6964206164647265737360881b60448201526064016105df565b600280546001600160a01b0319166001600160a01b0392909216919091179055565b6009602052816000526040600020818154811061166657600080fd5b90600052602060002001600091509150505481565b6002546001600160a01b031633148061169e57506000546001600160a01b031633145b6116d85760405162461bcd60e51b815260206004820152600b60248201526a4f6e6c79206f7261636c6560a81b60448201526064016105df565b8281146117195760405162461bcd60e51b815260206004820152600f60248201526e098cadccee8d040dad2e6dac2e8c6d608b1b60448201526064016105df565b60005b838110156118e0576003600086868481811061173a5761173a611d5e565b905060200201602081019061174f9190611a5e565b6001600160a01b0316815260208101919091526040016000205460ff1680156117905750600083838381811061178757611787611d5e565b90506020020135115b156118ce578282828181106117a7576117a7611d5e565b90506020020135600560008787858181106117c4576117c4611d5e565b90506020020160208101906117d99190611a5e565b6001600160a01b03166001600160a01b0316815260200190815260200160002081905550426006600087878581811061181457611814611d5e565b90506020020160208101906118299190611a5e565b6001600160a01b0316815260208101919091526040016000205584848281811061185557611855611d5e565b905060200201602081019061186a9190611a5e565b6001600160a01b03167fb556fac599c3c70efb9ab1fa725ecace6c81cc48d1455f886607def065f3e0c08484848181106118a6576118a6611d5e565b90506020020135426040516118c5929190918252602082015260400190565b60405180910390a25b806118d881611ce0565b91505061171c565b5050505050565b600481815481106118f757600080fd5b6000918252602090912001546001600160a01b0316905081565b6000546001600160a01b0316331461193b5760405162461bcd60e51b81526004016105df90611c23565b600a93909355600b91909155600c55600d55565b6020808252825182820181905260009190848201906040850190845b818110156119905783516001600160a01b03168352928401929184019160010161196b565b50909695505050505050565b6000602082840312156119ae57600080fd5b5035919050565b634e487b7160e01b600052602160045260246000fd5b6001600160a01b038a811682528916602082015260408101889052606081018790526080810186905260a0810185905260c0810184905282151560e0820152610120810160048310611a2d57634e487b7160e01b600052602160045260246000fd5b826101008301529a9950505050505050505050565b80356001600160a01b0381168114611a5957600080fd5b919050565b600060208284031215611a7057600080fd5b611a7982611a42565b9392505050565b6020808252825182820181905260009190848201906040850190845b8181101561199057835183529284019291840191600101611a9c565b8015158114611ac657600080fd5b50565b60008060008060808587031215611adf57600080fd5b611ae885611a42565b9350602085013592506040850135611aff81611ab8565b9396929550929360600135925050565b60008060408385031215611b2257600080fd5b611b2b83611a42565b946020939093013593505050565b60008083601f840112611b4b57600080fd5b50813567ffffffffffffffff811115611b6357600080fd5b6020830191508360208260051b8501011115611b7e57600080fd5b9250929050565b60008060008060408587031215611b9b57600080fd5b843567ffffffffffffffff80821115611bb357600080fd5b611bbf88838901611b39565b90965094506020870135915080821115611bd857600080fd5b50611be587828801611b39565b95989497509550505050565b60008060008060808587031215611c0757600080fd5b5050823594602084013594506040840135936060013592509050565b6020808252600a908201526927b7363c9037bbb732b960b11b604082015260600190565b6020808252600a90820152695265656e7472616e637960b01b604082015260600190565b634e487b7160e01b600052601160045260246000fd5b81810381811115611c9457611c94611c6b565b92915050565b600060208284031215611cac57600080fd5b8151611a7981611ab8565b6020808252600f908201526e151c985b9cd9995c8819985a5b1959608a1b604082015260600190565b600060018201611cf257611cf2611c6b565b5060010190565b80820180821115611c9457611c94611c6b565b600082611d2957634e487b7160e01b600052601260045260246000fd5b500490565b600081611d3d57611d3d611c6b565b506000190190565b600060208284031215611d5757600080fd5b5051919050565b634e487b7160e01b600052603260045260246000fdfea26469706673582212208a9e5e4a679ca31f87bcefd9f9d50e3b81d5f154f803ba7efe6bac113b48fb6464736f6c63430008130033","opcodes":"PUSH1 0x80 PUSH1 0x40 MSTORE PUSH7 0x38D7EA4C68000 PUSH1 0xA SSTORE PUSH9 0x3635C9ADC5DEA00000 PUSH1 0xB SSTORE PUSH1 0x3C PUSH1 0xC SSTORE PUSH3 0x15180 PUSH1 0xD SSTORE CALLVALUE DUP1 ISZERO PUSH2 0x34 JUMPI PUSH1 0x0 DUP1 REVERT JUMPDEST POP PUSH1 0x40 MLOAD PUSH2 0x1E7C CODESIZE SUB DUP1 PUSH2 0x1E7C DUP4 CODECOPY DUP2 ADD PUSH1 0x40 DUP2 SWAP1 MSTORE PUSH2 0x53 SWAP2 PUSH2 0x93 JUMP JUMPDEST PUSH1 0x0 DUP1 SLOAD CALLER PUSH1 0x1 PUSH1 0x1 PUSH1 0xA0 SHL SUB NOT SWAP2 DUP3 AND DUP2 OR SWAP1 SWAP3 SSTORE PUSH1 0x2 DUP1 SLOAD DUP3 AND SWAP1 SWAP3 OR SWAP1 SWAP2 SSTORE PUSH1 0x1 DUP1 SLOAD SWAP1 SWAP2 AND PUSH1 0x1 PUSH1 0x1 PUSH1 0xA0 SHL SUB SWAP3 SWAP1 SWAP3 AND SWAP2 SWAP1 SWAP2 OR SWAP1 SSTORE PUSH2 0xC3 JUMP JUMPDEST PUSH1 0x0 PUSH1 0x20 DUP3 DUP5 SUB SLT ISZERO PUSH2 0xA5 JUMPI PUSH1 0x0 DUP1 REVERT JUMPDEST DUP2 MLOAD PUSH1 0x1 PUSH1 0x1 PUSH1 0xA0 SHL SUB DUP2 AND DUP2 EQ PUSH2 0xBC JUMPI PUSH1 0x0 DUP1 REVERT JUMPDEST SWAP4 SWAP3 POP POP POP JUMP JUMPDEST PUSH2 0x1DAA DUP1 PUSH2 0xD2 PUSH1 0x0 CODECOPY PUSH1 0x0 RETURN INVALID PUSH1 0x80 PUSH1 0x40 MSTORE CALLVALUE DUP1 ISZERO PUSH2 0x10 JUMPI PUSH1 0x0 DUP1 REVERT JUMPDEST POP PUSH1 0x4 CALLDATASIZE LT PUSH2 0x1E5 JUMPI PUSH1 0x0 CALLDATALOAD PUSH1 0xE0 SHR DUP1 PUSH4 0x5F81A57C GT PUSH2 0x10F JUMPI DUP1 PUSH4 0xAE2E933B GT PUSH2 0xA2 JUMPI DUP1 PUSH4 0xE744092E GT PUSH2 0x71 JUMPI DUP1 PUSH4 0xE744092E EQ PUSH2 0x4FC JUMPI DUP1 PUSH4 0xED53AFA3 EQ PUSH2 0x52F JUMPI DUP1 PUSH4 0xFA968EEA EQ PUSH2 0x537 JUMPI DUP1 PUSH4 0xFBB55ED2 EQ PUSH2 0x540 JUMPI PUSH1 0x0 DUP1 REVERT JUMPDEST DUP1 PUSH4 0xAE2E933B EQ PUSH2 0x4B7 JUMPI DUP1 PUSH4 0xBEFA1E2F EQ PUSH2 0x4CA JUMPI DUP1 PUSH4 0xCAB11D5D EQ PUSH2 0x4D3 JUMPI DUP1 PUSH4 0xD29048E7 EQ PUSH2 0x4DC JUMPI PUSH1 0x0 DUP1 REVERT JUMPDEST DUP1 PUSH4 0x96F77060 GT PUSH2 0xDE JUMPI DUP1 PUSH4 0x96F77060 EQ PUSH2 0x468 JUMPI DUP1 PUSH4 0x9EAD7222 EQ PUSH2 0x47B JUMPI DUP1 PUSH4 0xA279CB56 EQ PUSH2 0x48E JUMPI DUP1 PUSH4 0xA416F5AB EQ PUSH2 0x4AE JUMPI PUSH1 0x0 DUP1 REVERT JUMPDEST DUP1 PUSH4 0x5F81A57C EQ PUSH2 0x430 JUMPI DUP1 PUSH4 0x6DB5C8FD EQ PUSH2 0x439 JUMPI DUP1 PUSH4 0x8068AA68 EQ PUSH2 0x442 JUMPI DUP1 PUSH4 0x8DA5CB5B EQ PUSH2 0x455 JUMPI PUSH1 0x0 DUP1 REVERT JUMPDEST DUP1 PUSH4 0x312892BD GT PUSH2 0x187 JUMPI DUP1 PUSH4 0x457972DE GT PUSH2 0x156 JUMPI DUP1 PUSH4 0x457972DE EQ PUSH2 0x3EE JUMPI DUP1 PUSH4 0x4C36C36E EQ PUSH2 0x401 JUMPI DUP1 PUSH4 0x530E784F EQ PUSH2 0x414 JUMPI DUP1 PUSH4 0x56715761 EQ PUSH2 0x427 JUMPI PUSH1 0x0 DUP1 REVERT JUMPDEST DUP1 PUSH4 0x312892BD EQ PUSH2 0x36A JUMPI DUP1 PUSH4 0x357401F5 EQ PUSH2 0x37D JUMPI DUP1 PUSH4 0x4178617F EQ PUSH2 0x390 JUMPI DUP1 PUSH4 0x41976E09 EQ PUSH2 0x3A3 JUMPI PUSH1 0x0 DUP1 REVERT JUMPDEST DUP1 PUSH4 0x19DB2228 GT PUSH2 0x1C3 JUMPI DUP1 PUSH4 0x19DB2228 EQ PUSH2 0x29F JUMPI DUP1 PUSH4 0x22AF00FA EQ PUSH2 0x2B4 JUMPI DUP1 PUSH4 0x2630C12F EQ PUSH2 0x31F JUMPI DUP1 PUSH4 0x2D56657D EQ PUSH2 0x34A JUMPI PUSH1 0x0 DUP1 REVERT JUMPDEST DUP1 PUSH4 0x24ECE89 EQ PUSH2 0x1EA JUMPI DUP1 PUSH4 0x32EE405 EQ PUSH2 0x208 JUMPI DUP1 PUSH4 0x61E494F EQ PUSH2 0x21F JUMPI JUMPDEST PUSH1 0x0 DUP1 REVERT JUMPDEST PUSH2 0x1F2 PUSH2 0x553 JUMP JUMPDEST PUSH1 0x40 MLOAD PUSH2 0x1FF SWAP2 SWAP1 PUSH2 0x194F JUMP JUMPDEST PUSH1 0x40 MLOAD DUP1 SWAP2 SUB SWAP1 RETURN JUMPDEST PUSH2 0x211 PUSH1 0x10 SLOAD DUP2 JUMP JUMPDEST PUSH1 0x40 MLOAD SWAP1 DUP2 MSTORE PUSH1 0x20 ADD PUSH2 0x1FF JUMP JUMPDEST PUSH2 0x28A PUSH2 0x22D CALLDATASIZE PUSH1 0x4 PUSH2 0x199C JUMP JUMPDEST PUSH1 0x0 SWAP1 DUP2 MSTORE PUSH1 0x7 PUSH1 0x20 DUP2 SWAP1 MSTORE PUSH1 0x40 SWAP1 SWAP2 KECCAK256 DUP1 SLOAD PUSH1 0x1 DUP3 ADD SLOAD PUSH1 0x2 DUP4 ADD SLOAD PUSH1 0x3 DUP5 ADD SLOAD PUSH1 0x4 DUP6 ADD SLOAD PUSH1 0x5 DUP7 ADD SLOAD PUSH1 0x6 DUP8 ADD SLOAD SWAP7 SWAP1 SWAP8 ADD SLOAD PUSH1 0x1 PUSH1 0x1 PUSH1 0xA0 SHL SUB SWAP6 DUP7 AND SWAP9 SWAP6 SWAP1 SWAP5 AND SWAP7 SWAP3 SWAP6 SWAP2 SWAP5 SWAP1 SWAP4 PUSH1 0xFF DUP1 DUP3 AND SWAP3 PUSH2 0x100 SWAP1 SWAP3 DIV AND SWAP1 JUMP JUMPDEST PUSH1 0x40 MLOAD PUSH2 0x1FF SWAP10 SWAP9 SWAP8 SWAP7 SWAP6 SWAP5 SWAP4 SWAP3 SWAP2 SWAP1 PUSH2 0x19CB JUMP JUMPDEST PUSH2 0x2B2 PUSH2 0x2AD CALLDATASIZE PUSH1 0x4 PUSH2 0x1A5E JUMP JUMPDEST PUSH2 0x5B5 JUMP JUMPDEST STOP JUMPDEST PUSH2 0x28A PUSH2 0x2C2 CALLDATASIZE PUSH1 0x4 PUSH2 0x199C JUMP JUMPDEST PUSH1 0x7 PUSH1 0x20 DUP2 SWAP1 MSTORE PUSH1 0x0 SWAP2 DUP3 MSTORE PUSH1 0x40 SWAP1 SWAP2 KECCAK256 DUP1 SLOAD PUSH1 0x1 DUP3 ADD SLOAD PUSH1 0x2 DUP4 ADD SLOAD PUSH1 0x3 DUP5 ADD SLOAD PUSH1 0x4 DUP6 ADD SLOAD PUSH1 0x5 DUP7 ADD SLOAD PUSH1 0x6 DUP8 ADD SLOAD SWAP7 SWAP1 SWAP8 ADD SLOAD PUSH1 0x1 PUSH1 0x1 PUSH1 0xA0 SHL SUB SWAP6 DUP7 AND SWAP8 SWAP6 SWAP1 SWAP5 AND SWAP6 SWAP3 SWAP5 SWAP2 SWAP4 SWAP1 SWAP3 SWAP1 PUSH1 0xFF DUP1 DUP3 AND SWAP2 PUSH2 0x100 SWAP1 DIV AND DUP10 JUMP JUMPDEST PUSH1 0x2 SLOAD PUSH2 0x332 SWAP1 PUSH1 0x1 PUSH1 0x1 PUSH1 0xA0 SHL SUB AND DUP2 JUMP JUMPDEST PUSH1 0x40 MLOAD PUSH1 0x1 PUSH1 0x1 PUSH1 0xA0 SHL SUB SWAP1 SWAP2 AND DUP2 MSTORE PUSH1 0x20 ADD PUSH2 0x1FF JUMP JUMPDEST PUSH2 0x35D PUSH2 0x358 CALLDATASIZE PUSH1 0x4 PUSH2 0x1A5E JUMP JUMPDEST PUSH2 0x652 JUMP JUMPDEST PUSH1 0x40 MLOAD PUSH2 0x1FF SWAP2 SWAP1 PUSH2 0x1A80 JUMP JUMPDEST PUSH2 0x211 PUSH2 0x378 CALLDATASIZE PUSH1 0x4 PUSH2 0x1AC9 JUMP JUMPDEST PUSH2 0x6BE JUMP JUMPDEST PUSH2 0x2B2 PUSH2 0x38B CALLDATASIZE PUSH1 0x4 PUSH2 0x199C JUMP JUMPDEST PUSH2 0xB6D JUMP JUMPDEST PUSH2 0x2B2 PUSH2 0x39E CALLDATASIZE PUSH1 0x4 PUSH2 0x1A5E JUMP JUMPDEST PUSH2 0xEB5 JUMP JUMPDEST PUSH2 0x3D9 PUSH2 0x3B1 CALLDATASIZE PUSH1 0x4 PUSH2 0x1A5E JUMP JUMPDEST PUSH1 0x1 PUSH1 0x1 PUSH1 0xA0 SHL SUB AND PUSH1 0x0 SWAP1 DUP2 MSTORE PUSH1 0x5 PUSH1 0x20 SWAP1 DUP2 MSTORE PUSH1 0x40 DUP1 DUP4 KECCAK256 SLOAD PUSH1 0x6 SWAP1 SWAP3 MSTORE SWAP1 SWAP2 KECCAK256 SLOAD SWAP1 SWAP2 JUMP JUMPDEST PUSH1 0x40 DUP1 MLOAD SWAP3 DUP4 MSTORE PUSH1 0x20 DUP4 ADD SWAP2 SWAP1 SWAP2 MSTORE ADD PUSH2 0x1FF JUMP JUMPDEST PUSH2 0x2B2 PUSH2 0x3FC CALLDATASIZE PUSH1 0x4 PUSH2 0x1B0F JUMP JUMPDEST PUSH2 0x1010 JUMP JUMPDEST PUSH2 0x2B2 PUSH2 0x40F CALLDATASIZE PUSH1 0x4 PUSH2 0x199C JUMP JUMPDEST PUSH2 0x116C JUMP JUMPDEST PUSH2 0x2B2 PUSH2 0x422 CALLDATASIZE PUSH1 0x4 PUSH2 0x1A5E JUMP JUMPDEST PUSH2 0x15B6 JUMP JUMPDEST PUSH2 0x211 PUSH1 0xC SLOAD DUP2 JUMP JUMPDEST PUSH2 0x211 PUSH1 0xF SLOAD DUP2 JUMP JUMPDEST PUSH2 0x211 PUSH1 0xD SLOAD DUP2 JUMP JUMPDEST PUSH2 0x211 PUSH2 0x450 CALLDATASIZE PUSH1 0x4 PUSH2 0x1B0F JUMP JUMPDEST PUSH2 0x164A JUMP JUMPDEST PUSH1 0x0 SLOAD PUSH2 0x332 SWAP1 PUSH1 0x1 PUSH1 0x1 PUSH1 0xA0 SHL SUB AND DUP2 JUMP JUMPDEST PUSH2 0x2B2 PUSH2 0x476 CALLDATASIZE PUSH1 0x4 PUSH2 0x1B85 JUMP JUMPDEST PUSH2 0x167B JUMP JUMPDEST PUSH2 0x332 PUSH2 0x489 CALLDATASIZE PUSH1 0x4 PUSH2 0x199C JUMP JUMPDEST PUSH2 0x18E7 JUMP JUMPDEST PUSH2 0x211 PUSH2 0x49C CALLDATASIZE PUSH1 0x4 PUSH2 0x1A5E JUMP JUMPDEST PUSH1 0x5 PUSH1 0x20 MSTORE PUSH1 0x0 SWAP1 DUP2 MSTORE PUSH1 0x40 SWAP1 KECCAK256 SLOAD DUP2 JUMP JUMPDEST PUSH2 0x211 PUSH1 0x8 SLOAD DUP2 JUMP JUMPDEST PUSH1 0x1 SLOAD PUSH2 0x332 SWAP1 PUSH1 0x1 PUSH1 0x1 PUSH1 0xA0 SHL SUB AND DUP2 JUMP JUMPDEST PUSH2 0x211 PUSH1 0xE SLOAD DUP2 JUMP JUMPDEST PUSH2 0x211 PUSH1 0xB SLOAD DUP2 JUMP JUMPDEST PUSH2 0x211 PUSH2 0x4EA CALLDATASIZE PUSH1 0x4 PUSH2 0x1A5E JUMP JUMPDEST PUSH1 0x6 PUSH1 0x20 MSTORE PUSH1 0x0 SWAP1 DUP2 MSTORE PUSH1 0x40 SWAP1 KECCAK256 SLOAD DUP2 JUMP JUMPDEST PUSH2 0x51F PUSH2 0x50A CALLDATASIZE PUSH1 0x4 PUSH2 0x1A5E JUMP JUMPDEST PUSH1 0x3 PUSH1 0x20 MSTORE PUSH1 0x0 SWAP1 DUP2 MSTORE PUSH1 0x40 SWAP1 KECCAK256 SLOAD PUSH1 0xFF AND DUP2 JUMP JUMPDEST PUSH1 0x40 MLOAD SWAP1 ISZERO ISZERO DUP2 MSTORE PUSH1 0x20 ADD PUSH2 0x1FF JUMP JUMPDEST PUSH1 0x10 SLOAD PUSH2 0x211 JUMP JUMPDEST PUSH2 0x211 PUSH1 0xA SLOAD DUP2 JUMP JUMPDEST PUSH2 0x2B2 PUSH2 0x54E CALLDATASIZE PUSH1 0x4 PUSH2 0x1BF1 JUMP JUMPDEST PUSH2 0x1911 JUMP JUMPDEST PUSH1 0x60 PUSH1 0x4 DUP1 SLOAD DUP1 PUSH1 0x20 MUL PUSH1 0x20 ADD PUSH1 0x40 MLOAD SWAP1 DUP2 ADD PUSH1 0x40 MSTORE DUP1 SWAP3 SWAP2 SWAP1 DUP2 DUP2 MSTORE PUSH1 0x20 ADD DUP3 DUP1 SLOAD DUP1 ISZERO PUSH2 0x5AB JUMPI PUSH1 0x20 MUL DUP3 ADD SWAP2 SWAP1 PUSH1 0x0 MSTORE PUSH1 0x20 PUSH1 0x0 KECCAK256 SWAP1 JUMPDEST DUP2 SLOAD PUSH1 0x1 PUSH1 0x1 PUSH1 0xA0 SHL SUB AND DUP2 MSTORE PUSH1 0x1 SWAP1 SWAP2 ADD SWAP1 PUSH1 0x20 ADD DUP1 DUP4 GT PUSH2 0x58D JUMPI JUMPDEST POP POP POP POP POP SWAP1 POP SWAP1 JUMP JUMPDEST PUSH1 0x0 SLOAD PUSH1 0x1 PUSH1 0x1 PUSH1 0xA0 SHL SUB AND CALLER EQ PUSH2 0x5E8 JUMPI PUSH1 0x40 MLOAD PUSH3 0x461BCD PUSH1 0xE5 SHL DUP2 MSTORE PUSH1 0x4 ADD PUSH2 0x5DF SWAP1 PUSH2 0x1C23 JUMP JUMPDEST PUSH1 0x40 MLOAD DUP1 SWAP2 SUB SWAP1 REVERT JUMPDEST PUSH1 0x1 PUSH1 0x1 PUSH1 0xA0 SHL SUB DUP2 AND PUSH2 0x630 JUMPI PUSH1 0x40 MLOAD PUSH3 0x461BCD PUSH1 0xE5 SHL DUP2 MSTORE PUSH1 0x20 PUSH1 0x4 DUP3 ADD MSTORE PUSH1 0xF PUSH1 0x24 DUP3 ADD MSTORE PUSH15 0x496E76616C69642061646472657373 PUSH1 0x88 SHL PUSH1 0x44 DUP3 ADD MSTORE PUSH1 0x64 ADD PUSH2 0x5DF JUMP JUMPDEST PUSH1 0x1 DUP1 SLOAD PUSH1 0x1 PUSH1 0x1 PUSH1 0xA0 SHL SUB NOT AND PUSH1 0x1 PUSH1 0x1 PUSH1 0xA0 SHL SUB SWAP3 SWAP1 SWAP3 AND SWAP2 SWAP1 SWAP2 OR SWAP1 SSTORE JUMP JUMPDEST PUSH1 0x1 PUSH1 0x1 PUSH1 0xA0 SHL SUB DUP2 AND PUSH1 0x0 SWAP1 DUP2 MSTORE PUSH1 0x9 PUSH1 0x20 SWAP1 DUP2 MSTORE PUSH1 0x40 SWAP2 DUP3 SWAP1 KECCAK256 DUP1 SLOAD DUP4 MLOAD DUP2 DUP5 MUL DUP2 ADD DUP5 ADD SWAP1 SWAP5 MSTORE DUP1 DUP5 MSTORE PUSH1 0x60 SWAP4 SWAP3 DUP4 ADD DUP3 DUP3 DUP1 ISZERO PUSH2 0x6B2 JUMPI PUSH1 0x20 MUL DUP3 ADD SWAP2 SWAP1 PUSH1 0x0 MSTORE PUSH1 0x20 PUSH1 0x0 KECCAK256 SWAP1 JUMPDEST DUP2 SLOAD DUP2 MSTORE PUSH1 0x20 ADD SWAP1 PUSH1 0x1 ADD SWAP1 DUP1 DUP4 GT PUSH2 0x69E JUMPI JUMPDEST POP POP POP POP POP SWAP1 POP SWAP2 SWAP1 POP JUMP JUMPDEST PUSH1 0x11 SLOAD PUSH1 0x0 SWAP1 PUSH1 0xFF AND ISZERO PUSH2 0x6E4 JUMPI PUSH1 0x40 MLOAD PUSH3 0x461BCD PUSH1 0xE5 SHL DUP2 MSTORE PUSH1 0x4 ADD PUSH2 0x5DF SWAP1 PUSH2 0x1C47 JUMP JUMPDEST PUSH1 0x11 DUP1 SLOAD PUSH1 0xFF NOT AND PUSH1 0x1 OR SWAP1 SSTORE PUSH1 0x1 PUSH1 0x1 PUSH1 0xA0 SHL SUB DUP6 AND PUSH1 0x0 SWAP1 DUP2 MSTORE PUSH1 0x3 PUSH1 0x20 MSTORE PUSH1 0x40 SWAP1 KECCAK256 SLOAD PUSH1 0xFF AND PUSH2 0x74D JUMPI PUSH1 0x40 MLOAD PUSH3 0x461BCD PUSH1 0xE5 SHL DUP2 MSTORE PUSH1 0x20 PUSH1 0x4 DUP3 ADD MSTORE PUSH1 0x11 PUSH1 0x24 DUP3 ADD MSTORE PUSH17 0x151BDAD95B881B9BDD08185B1B1BDDD959 PUSH1 0x7A SHL PUSH1 0x44 DUP3 ADD MSTORE PUSH1 0x64 ADD PUSH2 0x5DF JUMP JUMPDEST PUSH1 0xA SLOAD DUP5 LT ISZERO DUP1 ISZERO PUSH2 0x761 JUMPI POP PUSH1 0xB SLOAD DUP5 GT ISZERO JUMPDEST PUSH2 0x79E JUMPI PUSH1 0x40 MLOAD PUSH3 0x461BCD PUSH1 0xE5 SHL DUP2 MSTORE PUSH1 0x20 PUSH1 0x4 DUP3 ADD MSTORE PUSH1 0xE PUSH1 0x24 DUP3 ADD MSTORE PUSH14 0x125B9D985B1A5908185B5BDD5B9D PUSH1 0x92 SHL PUSH1 0x44 DUP3 ADD MSTORE PUSH1 0x64 ADD PUSH2 0x5DF JUMP JUMPDEST PUSH1 0xC SLOAD DUP3 LT ISZERO DUP1 ISZERO PUSH2 0x7B2 JUMPI POP PUSH1 0xD SLOAD DUP3 GT ISZERO JUMPDEST PUSH2 0x7F1 JUMPI PUSH1 0x40 MLOAD PUSH3 0x461BCD PUSH1 0xE5 SHL DUP2 MSTORE PUSH1 0x20 PUSH1 0x4 DUP3 ADD MSTORE PUSH1 0x10 PUSH1 0x24 DUP3 ADD MSTORE PUSH16 0x24B73B30B634B210323AB930BA34B7B7 PUSH1 0x81 SHL PUSH1 0x44 DUP3 ADD MSTORE PUSH1 0x64 ADD PUSH2 0x5DF JUMP JUMPDEST PUSH1 0x1 PUSH1 0x1 PUSH1 0xA0 SHL SUB DUP6 AND PUSH1 0x0 SWAP1 DUP2 MSTORE PUSH1 0x5 PUSH1 0x20 MSTORE PUSH1 0x40 SWAP1 KECCAK256 SLOAD PUSH2 0x84C JUMPI PUSH1 0x40 MLOAD PUSH3 0x461BCD PUSH1 0xE5 SHL DUP2 MSTORE PUSH1 0x20 PUSH1 0x4 DUP3 ADD MSTORE PUSH1 0x13 PUSH1 0x24 DUP3 ADD MSTORE PUSH19 0x5072696365206E6F7420617661696C61626C65 PUSH1 0x68 SHL PUSH1 0x44 DUP3 ADD MSTORE PUSH1 0x64 ADD PUSH2 0x5DF JUMP JUMPDEST PUSH1 0x1 PUSH1 0x1 PUSH1 0xA0 SHL SUB DUP6 AND PUSH1 0x0 SWAP1 DUP2 MSTORE PUSH1 0x6 PUSH1 0x20 MSTORE PUSH1 0x40 SWAP1 KECCAK256 SLOAD PUSH2 0xE10 SWAP1 PUSH2 0x873 SWAP1 TIMESTAMP PUSH2 0x1C81 JUMP JUMPDEST LT PUSH2 0x8B0 JUMPI PUSH1 0x40 MLOAD PUSH3 0x461BCD PUSH1 0xE5 SHL DUP2 MSTORE PUSH1 0x20 PUSH1 0x4 DUP3 ADD MSTORE PUSH1 0xD PUSH1 0x24 DUP3 ADD MSTORE PUSH13 0x141C9A58D9481D1BDBC81BDB19 PUSH1 0x9A SHL PUSH1 0x44 DUP3 ADD MSTORE PUSH1 0x64 ADD PUSH2 0x5DF JUMP JUMPDEST PUSH1 0x40 MLOAD PUSH4 0x23B872DD PUSH1 0xE0 SHL DUP2 MSTORE CALLER PUSH1 0x4 DUP3 ADD MSTORE ADDRESS PUSH1 0x24 DUP3 ADD MSTORE PUSH1 0x44 DUP2 ADD DUP6 SWAP1 MSTORE PUSH1 0x1 PUSH1 0x1 PUSH1 0xA0 SHL SUB DUP7 AND SWAP1 PUSH4 0x23B872DD SWAP1 PUSH1 0x64 ADD PUSH1 0x20 PUSH1 0x40 MLOAD DUP1 DUP4 SUB DUP2 PUSH1 0x0 DUP8 GAS CALL ISZERO DUP1 ISZERO PUSH2 0x903 JUMPI RETURNDATASIZE PUSH1 0x0 DUP1 RETURNDATACOPY RETURNDATASIZE PUSH1 0x0 REVERT JUMPDEST POP POP POP POP PUSH1 0x40 MLOAD RETURNDATASIZE PUSH1 0x1F NOT PUSH1 0x1F DUP3 ADD AND DUP3 ADD DUP1 PUSH1 0x40 MSTORE POP DUP2 ADD SWAP1 PUSH2 0x927 SWAP2 SWAP1 PUSH2 0x1C9A JUMP JUMPDEST PUSH2 0x943 JUMPI PUSH1 0x40 MLOAD PUSH3 0x461BCD PUSH1 0xE5 SHL DUP2 MSTORE PUSH1 0x4 ADD PUSH2 0x5DF SWAP1 PUSH2 0x1CB7 JUMP JUMPDEST PUSH1 0x8 DUP1 SLOAD SWAP1 PUSH1 0x0 PUSH2 0x953 DUP4 PUSH2 0x1CE0 JUMP JUMPDEST SWAP2 SWAP1 POP SSTORE SWAP1 POP PUSH1 0x40 MLOAD DUP1 PUSH2 0x120 ADD PUSH1 0x40 MSTORE DUP1 CALLER PUSH1 0x1 PUSH1 0x1 PUSH1 0xA0 SHL SUB AND DUP2 MSTORE PUSH1 0x20 ADD DUP7 PUSH1 0x1 PUSH1 0x1 PUSH1 0xA0 SHL SUB AND DUP2 MSTORE PUSH1 0x20 ADD DUP6 DUP2 MSTORE PUSH1 0x20 ADD PUSH1 0x5 PUSH1 0x0 DUP9 PUSH1 0x1 PUSH1 0x1 PUSH1 0xA0 SHL SUB AND PUSH1 0x1 PUSH1 0x1 PUSH1 0xA0 SHL SUB AND DUP2 MSTORE PUSH1 0x20 ADD SWAP1 DUP2 MSTORE PUSH1 0x20 ADD PUSH1 0x0 KECCAK256 SLOAD DUP2 MSTORE PUSH1 0x20 ADD PUSH1 0x0 DUP2 MSTORE PUSH1 0x20 ADD TIMESTAMP DUP2 MSTORE PUSH1 0x20 ADD DUP4 TIMESTAMP PUSH2 0x9CD SWAP2 SWAP1 PUSH2 0x1CF9 JUMP JUMPDEST DUP2 MSTORE DUP5 ISZERO ISZERO PUSH1 0x20 DUP3 ADD MSTORE PUSH1 0x40 ADD PUSH1 0x0 SWAP1 MSTORE PUSH1 0x0 DUP3 DUP2 MSTORE PUSH1 0x7 PUSH1 0x20 DUP2 DUP2 MSTORE PUSH1 0x40 SWAP3 DUP4 SWAP1 KECCAK256 DUP5 MLOAD DUP2 SLOAD PUSH1 0x1 PUSH1 0x1 PUSH1 0xA0 SHL SUB NOT SWAP1 DUP2 AND PUSH1 0x1 PUSH1 0x1 PUSH1 0xA0 SHL SUB SWAP3 DUP4 AND OR DUP4 SSTORE SWAP3 DUP7 ADD MLOAD PUSH1 0x1 DUP4 ADD DUP1 SLOAD SWAP1 SWAP5 AND SWAP2 AND OR SWAP1 SWAP2 SSTORE SWAP2 DUP4 ADD MLOAD PUSH1 0x2 DUP4 ADD SSTORE PUSH1 0x60 DUP4 ADD MLOAD PUSH1 0x3 DUP1 DUP5 ADD SWAP2 SWAP1 SWAP2 SSTORE PUSH1 0x80 DUP5 ADD MLOAD PUSH1 0x4 DUP5 ADD SSTORE PUSH1 0xA0 DUP5 ADD MLOAD PUSH1 0x5 DUP5 ADD SSTORE PUSH1 0xC0 DUP5 ADD MLOAD PUSH1 0x6 DUP5 ADD SSTORE PUSH1 0xE0 DUP5 ADD MLOAD SWAP2 DUP4 ADD DUP1 SLOAD PUSH1 0xFF NOT DUP2 AND SWAP4 ISZERO ISZERO SWAP4 DUP5 OR DUP3 SSTORE PUSH2 0x100 DUP1 DUP8 ADD MLOAD SWAP5 SWAP3 SWAP4 PUSH2 0xFFFF NOT SWAP1 SWAP3 AND PUSH2 0xFF00 NOT SWAP1 SWAP4 AND SWAP3 SWAP1 SWAP3 OR SWAP2 SWAP1 DUP5 SWAP1 DUP2 GT ISZERO PUSH2 0xA9C JUMPI PUSH2 0xA9C PUSH2 0x19B5 JUMP JUMPDEST MUL OR SWAP1 SSTORE POP POP CALLER PUSH1 0x0 SWAP1 DUP2 MSTORE PUSH1 0x9 PUSH1 0x20 SWAP1 DUP2 MSTORE PUSH1 0x40 DUP3 KECCAK256 DUP1 SLOAD PUSH1 0x1 DUP2 ADD DUP3 SSTORE SWAP1 DUP4 MSTORE SWAP1 DUP3 KECCAK256 ADD DUP4 SWAP1 SSTORE PUSH1 0xE DUP1 SLOAD SWAP3 POP SWAP1 PUSH2 0xAD5 DUP4 PUSH2 0x1CE0 JUMP JUMPDEST SWAP2 SWAP1 POP SSTORE POP DUP4 PUSH1 0xF PUSH1 0x0 DUP3 DUP3 SLOAD PUSH2 0xAEC SWAP2 SWAP1 PUSH2 0x1CF9 JUMP JUMPDEST SWAP1 SWAP2 SSTORE POP POP PUSH1 0x10 DUP1 SLOAD SWAP1 PUSH1 0x0 PUSH2 0xB01 DUP4 PUSH2 0x1CE0 JUMP JUMPDEST SWAP1 SWAP2 SSTORE POP POP PUSH1 0x40 DUP1 MLOAD PUSH1 0x1 PUSH1 0x1 PUSH1 0xA0 SHL SUB DUP8 AND DUP2 MSTORE PUSH1 0x20 DUP2 ADD DUP7 SWAP1 MSTORE DUP5 ISZERO ISZERO DUP2 DUP4 ADD MSTORE PUSH1 0x60 DUP2 ADD DUP5 SWAP1 MSTORE SWAP1 MLOAD CALLER SWAP2 DUP4 SWAP2 PUSH32 0xB6AA03AEA3DB5922679C3C4D4E12D294E40E1D3C3A917CDC05001D6594873A9A SWAP2 DUP2 SWAP1 SUB PUSH1 0x80 ADD SWAP1 LOG3 PUSH1 0x11 DUP1 SLOAD PUSH1 0xFF NOT AND SWAP1 SSTORE SWAP5 SWAP4 POP POP POP POP JUMP JUMPDEST PUSH1 0x11 SLOAD PUSH1 0xFF AND ISZERO PUSH2 0xB90 JUMPI PUSH1 0x40 MLOAD PUSH3 0x461BCD PUSH1 0xE5 SHL DUP2 MSTORE PUSH1 0x4 ADD PUSH2 0x5DF SWAP1 PUSH2 0x1C47 JUMP JUMPDEST PUSH1 0x11 DUP1 SLOAD PUSH1 0xFF NOT AND PUSH1 0x1 OR SWAP1 SSTORE PUSH1 0x0 DUP2 DUP2 MSTORE PUSH1 0x7 PUSH1 0x20 MSTORE PUSH1 0x40 SWAP1 KECCAK256 DUP1 SLOAD PUSH1 0x1 PUSH1 0x1 PUSH1 0xA0 SHL SUB AND CALLER EQ PUSH2 0xBF3 JUMPI PUSH1 0x40 MLOAD PUSH3 0x461BCD PUSH1 0xE5 SHL DUP2 MSTORE PUSH1 0x20 PUSH1 0x4 DUP3 ADD MSTORE PUSH1 0xC PUSH1 0x24 DUP3 ADD MSTORE PUSH12 0x139BDD081E5BDD5C8818995D PUSH1 0xA2 SHL PUSH1 0x44 DUP3 ADD MSTORE PUSH1 0x64 ADD PUSH2 0x5DF JUMP JUMPDEST PUSH1 0x0 PUSH1 0x7 DUP3 ADD SLOAD PUSH2 0x100 SWAP1 DIV PUSH1 0xFF AND PUSH1 0x3 DUP2 GT ISZERO PUSH2 0xC13 JUMPI PUSH2 0xC13 PUSH2 0x19B5 JUMP JUMPDEST EQ PUSH2 0xC51 JUMPI PUSH1 0x40 MLOAD PUSH3 0x461BCD PUSH1 0xE5 SHL DUP2 MSTORE PUSH1 0x20 PUSH1 0x4 DUP3 ADD MSTORE PUSH1 0xE PUSH1 0x24 DUP3 ADD MSTORE PUSH14 0x426574206E6F7420616374697665 PUSH1 0x90 SHL PUSH1 0x44 DUP3 ADD MSTORE PUSH1 0x64 ADD PUSH2 0x5DF JUMP JUMPDEST DUP1 PUSH1 0x6 ADD SLOAD TIMESTAMP LT PUSH2 0xC98 JUMPI PUSH1 0x40 MLOAD PUSH3 0x461BCD PUSH1 0xE5 SHL DUP2 MSTORE PUSH1 0x20 PUSH1 0x4 DUP3 ADD MSTORE PUSH1 0x11 PUSH1 0x24 DUP3 ADD MSTORE PUSH17 0x10995D08185B1C9958591E48195B991959 PUSH1 0x7A SHL PUSH1 0x44 DUP3 ADD MSTORE PUSH1 0x64 ADD PUSH2 0x5DF JUMP JUMPDEST PUSH1 0x7 DUP2 ADD DUP1 SLOAD PUSH2 0xFF00 NOT AND PUSH2 0x300 OR SWAP1 SSTORE PUSH1 0x2 DUP2 ADD SLOAD PUSH1 0x0 SWAP1 PUSH2 0xCBD SWAP1 PUSH1 0xA SWAP1 PUSH2 0x1D0C JUMP JUMPDEST SWAP1 POP PUSH1 0x0 DUP2 DUP4 PUSH1 0x2 ADD SLOAD PUSH2 0xCD1 SWAP2 SWAP1 PUSH2 0x1C81 JUMP JUMPDEST SWAP1 POP DUP2 ISZERO PUSH2 0xDC0 JUMPI PUSH1 0x1 DUP4 DUP2 ADD SLOAD SWAP1 SLOAD PUSH1 0x40 MLOAD PUSH4 0x95EA7B3 PUSH1 0xE0 SHL DUP2 MSTORE PUSH1 0x1 PUSH1 0x1 PUSH1 0xA0 SHL SUB SWAP2 DUP3 AND PUSH1 0x4 DUP3 ADD MSTORE PUSH1 0x24 DUP2 ADD DUP6 SWAP1 MSTORE SWAP2 AND SWAP1 PUSH4 0x95EA7B3 SWAP1 PUSH1 0x44 ADD PUSH1 0x20 PUSH1 0x40 MLOAD DUP1 DUP4 SUB DUP2 PUSH1 0x0 DUP8 GAS CALL ISZERO DUP1 ISZERO PUSH2 0xD30 JUMPI RETURNDATASIZE PUSH1 0x0 DUP1 RETURNDATACOPY RETURNDATASIZE PUSH1 0x0 REVERT JUMPDEST POP POP POP POP PUSH1 0x40 MLOAD RETURNDATASIZE PUSH1 0x1F NOT PUSH1 0x1F DUP3 ADD AND DUP3 ADD DUP1 PUSH1 0x40 MSTORE POP DUP2 ADD SWAP1 PUSH2 0xD54 SWAP2 SWAP1 PUSH2 0x1C9A JUMP JUMPDEST POP PUSH1 0x1 DUP1 SLOAD SWAP1 DUP5 ADD SLOAD PUSH1 0x40 MLOAD PUSH4 0x1DC1A8E9 PUSH1 0xE1 SHL DUP2 MSTORE PUSH1 0x1 PUSH1 0x1 PUSH1 0xA0 SHL SUB SWAP2 DUP3 AND PUSH1 0x4 DUP3 ADD MSTORE PUSH1 0x24 DUP2 ADD DUP6 SWAP1 MSTORE SWAP2 AND SWAP1 PUSH4 0x3B8351D2 SWAP1 PUSH1 0x44 ADD PUSH1 0x0 PUSH1 0x40 MLOAD DUP1 DUP4 SUB DUP2 PUSH1 0x0 DUP8 DUP1 EXTCODESIZE ISZERO DUP1 ISZERO PUSH2 0xDA7 JUMPI PUSH1 0x0 DUP1 REVERT JUMPDEST POP GAS CALL ISZERO DUP1 ISZERO PUSH2 0xDBB JUMPI RETURNDATASIZE PUSH1 0x0 DUP1 RETURNDATACOPY RETURNDATASIZE PUSH1 0x0 REVERT JUMPDEST POP POP POP POP JUMPDEST PUSH1 0x1 DUP4 ADD SLOAD PUSH1 0x40 MLOAD PUSH4 0xA9059CBB PUSH1 0xE0 SHL DUP2 MSTORE CALLER PUSH1 0x4 DUP3 ADD MSTORE PUSH1 0x24 DUP2 ADD DUP4 SWAP1 MSTORE PUSH1 0x1 PUSH1 0x1 PUSH1 0xA0 SHL SUB SWAP1 SWAP2 AND SWAP1 PUSH4 0xA9059CBB SWAP1 PUSH1 0x44 ADD PUSH1 0x20 PUSH1 0x40 MLOAD DUP1 DUP4 SUB DUP2 PUSH1 0x0 DUP8 GAS CALL ISZERO DUP1 ISZERO PUSH2 0xE13 JUMPI RETURNDATASIZE PUSH1 0x0 DUP1 RETURNDATACOPY RETURNDATASIZE PUSH1 0x0 REVERT JUMPDEST POP POP POP POP PUSH1 0x40 MLOAD RETURNDATASIZE PUSH1 0x1F NOT PUSH1 0x1F DUP3 ADD AND DUP3 ADD DUP1 PUSH1 0x40 MSTORE POP DUP2 ADD SWAP1 PUSH2 0xE37 SWAP2 SWAP1 PUSH2 0x1C9A JUMP JUMPDEST PUSH2 0xE53 JUMPI PUSH1 0x40 MLOAD PUSH3 0x461BCD PUSH1 0xE5 SHL DUP2 MSTORE PUSH1 0x4 ADD PUSH2 0x5DF SWAP1 PUSH2 0x1CB7 JUMP JUMPDEST PUSH1 0x10 DUP1 SLOAD SWAP1 PUSH1 0x0 PUSH2 0xE63 DUP4 PUSH2 0x1D2E JUMP JUMPDEST SWAP1 SWAP2 SSTORE POP POP PUSH1 0x40 DUP1 MLOAD PUSH1 0x0 DUP1 DUP3 MSTORE PUSH1 0x20 DUP3 ADD MSTORE CALLER SWAP2 DUP7 SWAP2 PUSH32 0xD1A7F8E02608013B9BD7679E3E05AD532E9C83829A935961F6EB37606A252585 SWAP2 ADD PUSH1 0x40 MLOAD DUP1 SWAP2 SUB SWAP1 LOG3 POP POP PUSH1 0x11 DUP1 SLOAD PUSH1 0xFF NOT AND SWAP1 SSTORE POP POP JUMP JUMPDEST PUSH1 0x0 SLOAD PUSH1 0x1 PUSH1 0x1 PUSH1 0xA0 SHL SUB AND CALLER EQ PUSH2 0xEDF JUMPI PUSH1 0x40 MLOAD PUSH3 0x461BCD PUSH1 0xE5 SHL DUP2 MSTORE PUSH1 0x4 ADD PUSH2 0x5DF SWAP1 PUSH2 0x1C23 JUMP JUMPDEST PUSH1 0x1 PUSH1 0x1 PUSH1 0xA0 SHL SUB DUP2 AND PUSH2 0xF25 JUMPI PUSH1 0x40 MLOAD PUSH3 0x461BCD PUSH1 0xE5 SHL DUP2 MSTORE PUSH1 0x20 PUSH1 0x4 DUP3 ADD MSTORE PUSH1 0xD PUSH1 0x24 DUP3 ADD MSTORE PUSH13 0x24B73B30B634B2103A37B5B2B7 PUSH1 0x99 SHL PUSH1 0x44 DUP3 ADD MSTORE PUSH1 0x64 ADD PUSH2 0x5DF JUMP JUMPDEST PUSH1 0x1 PUSH1 0x1 PUSH1 0xA0 SHL SUB DUP2 AND PUSH1 0x0 SWAP1 DUP2 MSTORE PUSH1 0x3 PUSH1 0x20 MSTORE PUSH1 0x40 SWAP1 KECCAK256 SLOAD PUSH1 0xFF AND ISZERO PUSH2 0xF84 JUMPI PUSH1 0x40 MLOAD PUSH3 0x461BCD PUSH1 0xE5 SHL DUP2 MSTORE PUSH1 0x20 PUSH1 0x4 DUP3 ADD MSTORE PUSH1 0x13 PUSH1 0x24 DUP3 ADD MSTORE PUSH19 0x151BDAD95B88185B1C9958591E481859191959 PUSH1 0x6A SHL PUSH1 0x44 DUP3 ADD MSTORE PUSH1 0x64 ADD PUSH2 0x5DF JUMP JUMPDEST PUSH1 0x1 PUSH1 0x1 PUSH1 0xA0 SHL SUB DUP2 AND PUSH1 0x0 DUP2 DUP2 MSTORE PUSH1 0x3 PUSH1 0x20 MSTORE PUSH1 0x40 DUP1 DUP3 KECCAK256 DUP1 SLOAD PUSH1 0xFF NOT AND PUSH1 0x1 SWAP1 DUP2 OR SWAP1 SWAP2 SSTORE PUSH1 0x4 DUP1 SLOAD SWAP2 DUP3 ADD DUP2 SSTORE DUP4 MSTORE PUSH32 0x8A35ACFBC15FF81A39AE7D344FD709F28E8600B4AA8C65C6B64BFE7FE36BD19B ADD DUP1 SLOAD PUSH1 0x1 PUSH1 0x1 PUSH1 0xA0 SHL SUB NOT AND DUP5 OR SWAP1 SSTORE MLOAD PUSH32 0x784C8F4DBF0FFEDD6E72C76501C545A70F8B203B30A26CE542BF92BA87C248A4 SWAP2 SWAP1 LOG2 POP JUMP JUMPDEST PUSH1 0x2 SLOAD PUSH1 0x1 PUSH1 0x1 PUSH1 0xA0 SHL SUB AND CALLER EQ DUP1 PUSH2 0x1033 JUMPI POP PUSH1 0x0 SLOAD PUSH1 0x1 PUSH1 0x1 PUSH1 0xA0 SHL SUB AND CALLER EQ JUMPDEST PUSH2 0x106D JUMPI PUSH1 0x40 MLOAD PUSH3 0x461BCD PUSH1 0xE5 SHL DUP2 MSTORE PUSH1 0x20 PUSH1 0x4 DUP3 ADD MSTORE PUSH1 0xB PUSH1 0x24 DUP3 ADD MSTORE PUSH11 0x4F6E6C79206F7261636C65 PUSH1 0xA8 SHL PUSH1 0x44 DUP3 ADD MSTORE PUSH1 0x64 ADD PUSH2 0x5DF JUMP JUMPDEST PUSH1 0x1 PUSH1 0x1 PUSH1 0xA0 SHL SUB DUP3 AND PUSH1 0x0 SWAP1 DUP2 MSTORE PUSH1 0x3 PUSH1 0x20 MSTORE PUSH1 0x40 SWAP1 KECCAK256 SLOAD PUSH1 0xFF AND PUSH2 0x10C9 JUMPI PUSH1 0x40 MLOAD PUSH3 0x461BCD PUSH1 0xE5 SHL DUP2 MSTORE PUSH1 0x20 PUSH1 0x4 DUP3 ADD MSTORE PUSH1 0x11 PUSH1 0x24 DUP3 ADD MSTORE PUSH17 0x151BDAD95B881B9BDD08185B1B1BDDD959 PUSH1 0x7A SHL PUSH1 0x44 DUP3 ADD MSTORE PUSH1 0x64 ADD PUSH2 0x5DF JUMP JUMPDEST PUSH1 0x0 DUP2 GT PUSH2 0x1109 JUMPI PUSH1 0x40 MLOAD PUSH3 0x461BCD PUSH1 0xE5 SHL DUP2 MSTORE PUSH1 0x20 PUSH1 0x4 DUP3 ADD MSTORE PUSH1 0xD PUSH1 0x24 DUP3 ADD MSTORE PUSH13 0x496E76616C6964207072696365 PUSH1 0x98 SHL PUSH1 0x44 DUP3 ADD MSTORE PUSH1 0x64 ADD PUSH2 0x5DF JUMP JUMPDEST PUSH1 0x1 PUSH1 0x1 PUSH1 0xA0 SHL SUB DUP3 AND PUSH1 0x0 DUP2 DUP2 MSTORE PUSH1 0x5 PUSH1 0x20 SWAP1 DUP2 MSTORE PUSH1 0x40 DUP1 DUP4 KECCAK256 DUP6 SWAP1 SSTORE PUSH1 0x6 DUP3 MSTORE SWAP2 DUP3 SWAP1 KECCAK256 TIMESTAMP SWAP1 DUP2 SWAP1 SSTORE DUP3 MLOAD DUP6 DUP2 MSTORE SWAP2 DUP3 ADD MSTORE PUSH32 0xB556FAC599C3C70EFB9AB1FA725ECACE6C81CC48D1455F886607DEF065F3E0C0 SWAP2 ADD PUSH1 0x40 MLOAD DUP1 SWAP2 SUB SWAP1 LOG2 POP POP JUMP JUMPDEST PUSH1 0x11 SLOAD PUSH1 0xFF AND ISZERO PUSH2 0x118F JUMPI PUSH1 0x40 MLOAD PUSH3 0x461BCD PUSH1 0xE5 SHL DUP2 MSTORE PUSH1 0x4 ADD PUSH2 0x5DF SWAP1 PUSH2 0x1C47 JUMP JUMPDEST PUSH1 0x11 DUP1 SLOAD PUSH1 0xFF NOT AND PUSH1 0x1 OR SWAP1 SSTORE PUSH1 0x0 DUP2 DUP2 MSTORE PUSH1 0x7 PUSH1 0x20 MSTORE PUSH1 0x40 DUP2 KECCAK256 SWAP1 PUSH1 0x7 DUP3 ADD SLOAD PUSH2 0x100 SWAP1 DIV PUSH1 0xFF AND PUSH1 0x3 DUP2 GT ISZERO PUSH2 0x11C9 JUMPI PUSH2 0x11C9 PUSH2 0x19B5 JUMP JUMPDEST EQ PUSH2 0x1207 JUMPI PUSH1 0x40 MLOAD PUSH3 0x461BCD PUSH1 0xE5 SHL DUP2 MSTORE PUSH1 0x20 PUSH1 0x4 DUP3 ADD MSTORE PUSH1 0xE PUSH1 0x24 DUP3 ADD MSTORE PUSH14 0x426574206E6F7420616374697665 PUSH1 0x90 SHL PUSH1 0x44 DUP3 ADD MSTORE PUSH1 0x64 ADD PUSH2 0x5DF JUMP JUMPDEST DUP1 PUSH1 0x6 ADD SLOAD TIMESTAMP LT ISZERO PUSH2 0x124B JUMPI PUSH1 0x40 MLOAD PUSH3 0x461BCD PUSH1 0xE5 SHL DUP2 MSTORE PUSH1 0x20 PUSH1 0x4 DUP3 ADD MSTORE PUSH1 0xD PUSH1 0x24 DUP3 ADD MSTORE PUSH13 0x10995D081B9BDD08195B991959 PUSH1 0x9A SHL PUSH1 0x44 DUP3 ADD MSTORE PUSH1 0x64 ADD PUSH2 0x5DF JUMP JUMPDEST PUSH1 0x1 DUP2 ADD SLOAD PUSH1 0x1 PUSH1 0x1 PUSH1 0xA0 SHL SUB AND PUSH1 0x0 SWAP1 DUP2 MSTORE PUSH1 0x5 PUSH1 0x20 MSTORE PUSH1 0x40 SWAP1 KECCAK256 SLOAD PUSH2 0x12AA JUMPI PUSH1 0x40 MLOAD PUSH3 0x461BCD PUSH1 0xE5 SHL DUP2 MSTORE PUSH1 0x20 PUSH1 0x4 DUP3 ADD MSTORE PUSH1 0x13 PUSH1 0x24 DUP3 ADD MSTORE PUSH19 0x5072696365206E6F7420617661696C61626C65 PUSH1 0x68 SHL PUSH1 0x44 DUP3 ADD MSTORE PUSH1 0x64 ADD PUSH2 0x5DF JUMP JUMPDEST PUSH1 0x1 DUP2 ADD SLOAD PUSH1 0x1 PUSH1 0x1 PUSH1 0xA0 SHL SUB AND PUSH1 0x0 SWAP1 DUP2 MSTORE PUSH1 0x5 PUSH1 0x20 MSTORE PUSH1 0x40 DUP2 KECCAK256 SLOAD PUSH1 0x4 DUP4 ADD DUP2 SWAP1 SSTORE PUSH1 0x3 DUP4 ADD SLOAD PUSH1 0x7 DUP5 ADD SLOAD SWAP2 GT SWAP2 SWAP1 PUSH1 0xFF AND DUP1 ISZERO PUSH2 0x12E8 JUMPI POP DUP2 JUMPDEST DUP1 PUSH2 0x1301 JUMPI POP PUSH1 0x7 DUP4 ADD SLOAD PUSH1 0xFF AND ISZERO DUP1 ISZERO PUSH2 0x1301 JUMPI POP DUP2 ISZERO JUMPDEST SWAP1 POP PUSH1 0x0 DUP2 ISZERO PUSH2 0x143F JUMPI PUSH1 0x7 DUP5 ADD DUP1 SLOAD PUSH2 0x100 PUSH2 0xFF00 NOT SWAP1 SWAP2 AND OR SWAP1 SSTORE PUSH1 0x1 DUP5 ADD SLOAD DUP5 SLOAD PUSH1 0x2 DUP7 ADD SLOAD PUSH1 0x40 MLOAD PUSH4 0xA9059CBB PUSH1 0xE0 SHL DUP2 MSTORE PUSH1 0x1 PUSH1 0x1 PUSH1 0xA0 SHL SUB SWAP3 DUP4 AND PUSH1 0x4 DUP3 ADD MSTORE PUSH1 0x24 DUP2 ADD SWAP2 SWAP1 SWAP2 MSTORE SWAP2 AND SWAP1 PUSH4 0xA9059CBB SWAP1 PUSH1 0x44 ADD PUSH1 0x20 PUSH1 0x40 MLOAD DUP1 DUP4 SUB DUP2 PUSH1 0x0 DUP8 GAS CALL ISZERO DUP1 ISZERO PUSH2 0x137A JUMPI RETURNDATASIZE PUSH1 0x0 DUP1 RETURNDATACOPY RETURNDATASIZE PUSH1 0x0 REVERT JUMPDEST POP POP POP POP PUSH1 0x40 MLOAD RETURNDATASIZE PUSH1 0x1F NOT PUSH1 0x1F DUP3 ADD AND DUP3 ADD DUP1 PUSH1 0x40 MSTORE POP DUP2 ADD SWAP1 PUSH2 0x139E SWAP2 SWAP1 PUSH2 0x1C9A JUMP JUMPDEST PUSH2 0x13BA JUMPI PUSH1 0x40 MLOAD PUSH3 0x461BCD PUSH1 0xE5 SHL DUP2 MSTORE PUSH1 0x4 ADD PUSH2 0x5DF SWAP1 PUSH2 0x1CB7 JUMP JUMPDEST PUSH1 0x1 DUP1 SLOAD DUP6 SLOAD SWAP2 DUP7 ADD SLOAD PUSH1 0x40 MLOAD PUSH4 0xF4FD47CF PUSH1 0xE0 SHL DUP2 MSTORE PUSH1 0x1 PUSH1 0x1 PUSH1 0xA0 SHL SUB SWAP4 DUP5 AND PUSH1 0x4 DUP3 ADD MSTORE SWAP1 DUP4 AND PUSH1 0x24 DUP3 ADD MSTORE SWAP2 AND SWAP1 PUSH4 0xF4FD47CF SWAP1 PUSH1 0x44 ADD PUSH1 0x20 PUSH1 0x40 MLOAD DUP1 DUP4 SUB DUP2 PUSH1 0x0 DUP8 GAS CALL ISZERO DUP1 ISZERO PUSH2 0x1414 JUMPI RETURNDATASIZE PUSH1 0x0 DUP1 RETURNDATACOPY RETURNDATASIZE PUSH1 0x0 REVERT JUMPDEST POP POP POP POP PUSH1 0x40 MLOAD RETURNDATASIZE PUSH1 0x1F NOT PUSH1 0x1F DUP3 ADD AND DUP3 ADD DUP1 PUSH1 0x40 MSTORE POP DUP2 ADD SWAP1 PUSH2 0x1438 SWAP2 SWAP1 PUSH2 0x1D45 JUMP JUMPDEST SWAP1 POP PUSH2 0x1545 JUMP JUMPDEST PUSH1 0x7 DUP5 ADD DUP1 SLOAD PUSH2 0x200 PUSH2 0xFF00 NOT SWAP1 SWAP2 AND OR SWAP1 SSTORE PUSH1 0x1 DUP1 DUP6 ADD SLOAD SWAP1 SLOAD PUSH1 0x2 DUP7 ADD SLOAD PUSH1 0x40 MLOAD PUSH4 0x95EA7B3 PUSH1 0xE0 SHL DUP2 MSTORE PUSH1 0x1 PUSH1 0x1 PUSH1 0xA0 SHL SUB SWAP3 DUP4 AND PUSH1 0x4 DUP3 ADD MSTORE PUSH1 0x24 DUP2 ADD SWAP2 SWAP1 SWAP2 MSTORE SWAP2 AND SWAP1 PUSH4 0x95EA7B3 SWAP1 PUSH1 0x44 ADD PUSH1 0x20 PUSH1 0x40 MLOAD DUP1 DUP4 SUB DUP2 PUSH1 0x0 DUP8 GAS CALL ISZERO DUP1 ISZERO PUSH2 0x14AF JUMPI RETURNDATASIZE PUSH1 0x0 DUP1 RETURNDATACOPY RETURNDATASIZE PUSH1 0x0 REVERT JUMPDEST POP POP POP POP PUSH1 0x40 MLOAD RETURNDATASIZE PUSH1 0x1F NOT PUSH1 0x1F DUP3 ADD AND DUP3 ADD DUP1 PUSH1 0x40 MSTORE POP DUP2 ADD SWAP1 PUSH2 0x14D3 SWAP2 SWAP1 PUSH2 0x1C9A JUMP JUMPDEST POP PUSH1 0x1 DUP1 SLOAD SWAP1 DUP6 ADD SLOAD PUSH1 0x2 DUP7 ADD SLOAD PUSH1 0x40 MLOAD PUSH4 0x1DC1A8E9 PUSH1 0xE1 SHL DUP2 MSTORE PUSH1 0x1 PUSH1 0x1 PUSH1 0xA0 SHL SUB SWAP3 DUP4 AND PUSH1 0x4 DUP3 ADD MSTORE PUSH1 0x24 DUP2 ADD SWAP2 SWAP1 SWAP2 MSTORE SWAP2 AND SWAP1 PUSH4 0x3B8351D2 SWAP1 PUSH1 0x44 ADD PUSH1 0x0 PUSH1 0x40 MLOAD DUP1 DUP4 SUB DUP2 PUSH1 0x0 DUP8 DUP1 EXTCODESIZE ISZERO DUP1 ISZERO PUSH2 0x152C JUMPI PUSH1 0x0 DUP1 REVERT JUMPDEST POP GAS CALL ISZERO DUP1 ISZERO PUSH2 0x1540 JUMPI RETURNDATASIZE PUSH1 0x0 DUP1 RETURNDATACOPY RETURNDATASIZE PUSH1 0x0 REVERT JUMPDEST POP POP POP POP JUMPDEST PUSH1 0x10 DUP1 SLOAD SWAP1 PUSH1 0x0 PUSH2 0x1555 DUP4 PUSH2 0x1D2E JUMP JUMPDEST SWAP1 SWAP2 SSTORE POP POP DUP4 SLOAD PUSH1 0x40 DUP1 MLOAD DUP5 ISZERO ISZERO DUP2 MSTORE PUSH1 0x20 DUP2 ADD DUP5 SWAP1 MSTORE PUSH1 0x1 PUSH1 0x1 PUSH1 0xA0 SHL SUB SWAP1 SWAP3 AND SWAP2 DUP8 SWAP2 PUSH32 0xD1A7F8E02608013B9BD7679E3E05AD532E9C83829A935961F6EB37606A252585 SWAP2 ADD PUSH1 0x40 MLOAD DUP1 SWAP2 SUB SWAP1 LOG3 POP POP PUSH1 0x11 DUP1 SLOAD PUSH1 0xFF NOT AND SWAP1 SSTORE POP POP POP JUMP JUMPDEST PUSH1 0x0 SLOAD PUSH1 0x1 PUSH1 0x1 PUSH1 0xA0 SHL SUB AND CALLER EQ PUSH2 0x15E0 JUMPI PUSH1 0x40 MLOAD PUSH3 0x461BCD PUSH1 0xE5 SHL DUP2 MSTORE PUSH1 0x4 ADD PUSH2 0x5DF SWAP1 PUSH2 0x1C23 JUMP JUMPDEST PUSH1 0x1 PUSH1 0x1 PUSH1 0xA0 SHL SUB DUP2 AND PUSH2 0x1628 JUMPI PUSH1 0x40 MLOAD PUSH3 0x461BCD PUSH1 0xE5 SHL DUP2 MSTORE PUSH1 0x20 PUSH1 0x4 DUP3 ADD MSTORE PUSH1 0xF PUSH1 0x24 DUP3 ADD MSTORE PUSH15 0x496E76616C69642061646472657373 PUSH1 0x88 SHL PUSH1 0x44 DUP3 ADD MSTORE PUSH1 0x64 ADD PUSH2 0x5DF JUMP JUMPDEST PUSH1 0x2 DUP1 SLOAD PUSH1 0x1 PUSH1 0x1 PUSH1 0xA0 SHL SUB NOT AND PUSH1 0x1 PUSH1 0x1 PUSH1 0xA0 SHL SUB SWAP3 SWAP1 SWAP3 AND SWAP2 SWAP1 SWAP2 OR SWAP1 SSTORE JUMP JUMPDEST PUSH1 0x9 PUSH1 0x20 MSTORE DUP2 PUSH1 0x0 MSTORE PUSH1 0x40 PUSH1 0x0 KECCAK256 DUP2 DUP2 SLOAD DUP2 LT PUSH2 0x1666 JUMPI PUSH1 0x0 DUP1 REVERT JUMPDEST SWAP1 PUSH1 0x0 MSTORE PUSH1 0x20 PUSH1 0x0 KECCAK256 ADD PUSH1 0x0 SWAP2 POP SWAP2 POP POP SLOAD DUP2 JUMP JUMPDEST PUSH1 0x2 SLOAD PUSH1 0x1 PUSH1 0x1 PUSH1 0xA0 SHL SUB AND CALLER EQ DUP1 PUSH2 0x169E JUMPI POP PUSH1 0x0 SLOAD PUSH1 0x1 PUSH1 0x1 PUSH1 0xA0 SHL SUB AND CALLER EQ JUMPDEST PUSH2 0x16D8 JUMPI PUSH1 0x40 MLOAD PUSH3 0x461BCD PUSH1 0xE5 SHL DUP2 MSTORE PUSH1 0x20 PUSH1 0x4 DUP3 ADD MSTORE PUSH1 0xB PUSH1 0x24 DUP3 ADD MSTORE PUSH11 0x4F6E6C79206F7261636C65 PUSH1 0xA8 SHL PUSH1 0x44 DUP3 ADD MSTORE PUSH1 0x64 ADD PUSH2 0x5DF JUMP JUMPDEST DUP3 DUP2 EQ PUSH2 0x1719 JUMPI PUSH1 0x40 MLOAD PUSH3 0x461BCD PUSH1 0xE5 SHL DUP2 MSTORE PUSH1 0x20 PUSH1 0x4 DUP3 ADD MSTORE PUSH1 0xF PUSH1 0x24 DUP3 ADD MSTORE PUSH15 0x98CADCCEE8D040DAD2E6DAC2E8C6D PUSH1 0x8B SHL PUSH1 0x44 DUP3 ADD MSTORE PUSH1 0x64 ADD PUSH2 0x5DF JUMP JUMPDEST PUSH1 0x0 JUMPDEST DUP4 DUP2 LT ISZERO PUSH2 0x18E0 JUMPI PUSH1 0x3 PUSH1 0x0 DUP7 DUP7 DUP5 DUP2 DUP2 LT PUSH2 0x173A JUMPI PUSH2 0x173A PUSH2 0x1D5E JUMP JUMPDEST SWAP1 POP PUSH1 0x20 MUL ADD PUSH1 0x20 DUP2 ADD SWAP1 PUSH2 0x174F SWAP2 SWAP1 PUSH2 0x1A5E JUMP JUMPDEST PUSH1 0x1 PUSH1 0x1 PUSH1 0xA0 SHL SUB AND DUP2 MSTORE PUSH1 0x20 DUP2 ADD SWAP2 SWAP1 SWAP2 MSTORE PUSH1 0x40 ADD PUSH1 0x0 KECCAK256 SLOAD PUSH1 0xFF AND DUP1 ISZERO PUSH2 0x1790 JUMPI POP PUSH1 0x0 DUP4 DUP4 DUP4 DUP2 DUP2 LT PUSH2 0x1787 JUMPI PUSH2 0x1787 PUSH2 0x1D5E JUMP JUMPDEST SWAP1 POP PUSH1 0x20 MUL ADD CALLDATALOAD GT JUMPDEST ISZERO PUSH2 0x18CE JUMPI DUP3 DUP3 DUP3 DUP2 DUP2 LT PUSH2 0x17A7 JUMPI PUSH2 0x17A7 PUSH2 0x1D5E JUMP JUMPDEST SWAP1 POP PUSH1 0x20 MUL ADD CALLDATALOAD PUSH1 0x5 PUSH1 0x0 DUP8 DUP8 DUP6 DUP2 DUP2 LT PUSH2 0x17C4 JUMPI PUSH2 0x17C4 PUSH2 0x1D5E JUMP JUMPDEST SWAP1 POP PUSH1 0x20 MUL ADD PUSH1 0x20 DUP2 ADD SWAP1 PUSH2 0x17D9 SWAP2 SWAP1 PUSH2 0x1A5E JUMP JUMPDEST PUSH1 0x1 PUSH1 0x1 PUSH1 0xA0 SHL SUB AND PUSH1 0x1 PUSH1 0x1 PUSH1 0xA0 SHL SUB AND DUP2 MSTORE PUSH1 0x20 ADD SWAP1 DUP2 MSTORE PUSH1 0x20 ADD PUSH1 0x0 KECCAK256 DUP2 SWAP1 SSTORE POP TIMESTAMP PUSH1 0x6 PUSH1 0x0 DUP8 DUP8 DUP6 DUP2 DUP2 LT PUSH2 0x1814 JUMPI PUSH2 0x1814 PUSH2 0x1D5E JUMP JUMPDEST SWAP1 POP PUSH1 0x20 MUL ADD PUSH1 0x20 DUP2 ADD SWAP1 PUSH2 0x1829 SWAP2 SWAP1 PUSH2 0x1A5E JUMP JUMPDEST PUSH1 0x1 PUSH1 0x1 PUSH1 0xA0 SHL SUB AND DUP2 MSTORE PUSH1 0x20 DUP2 ADD SWAP2 SWAP1 SWAP2 MSTORE PUSH1 0x40 ADD PUSH1 0x0 KECCAK256 SSTORE DUP5 DUP5 DUP3 DUP2 DUP2 LT PUSH2 0x1855 JUMPI PUSH2 0x1855 PUSH2 0x1D5E JUMP JUMPDEST SWAP1 POP PUSH1 0x20 MUL ADD PUSH1 0x20 DUP2 ADD SWAP1 PUSH2 0x186A SWAP2 SWAP1 PUSH2 0x1A5E JUMP JUMPDEST PUSH1 0x1 PUSH1 0x1 PUSH1 0xA0 SHL SUB AND PUSH32 0xB556FAC599C3C70EFB9AB1FA725ECACE6C81CC48D1455F886607DEF065F3E0C0 DUP5 DUP5 DUP5 DUP2 DUP2 LT PUSH2 0x18A6 JUMPI PUSH2 0x18A6 PUSH2 0x1D5E JUMP JUMPDEST SWAP1 POP PUSH1 0x20 MUL ADD CALLDATALOAD TIMESTAMP PUSH1 0x40 MLOAD PUSH2 0x18C5 SWAP3 SWAP2 SWAP1 SWAP2 DUP3 MSTORE PUSH1 0x20 DUP3 ADD MSTORE PUSH1 0x40 ADD SWAP1 JUMP JUMPDEST PUSH1 0x40 MLOAD DUP1 SWAP2 SUB SWAP1 LOG2 JUMPDEST DUP1 PUSH2 0x18D8 DUP2 PUSH2 0x1CE0 JUMP JUMPDEST SWAP2 POP POP PUSH2 0x171C JUMP JUMPDEST POP POP POP POP POP JUMP JUMPDEST PUSH1 0x4 DUP2 DUP2 SLOAD DUP2 LT PUSH2 0x18F7 JUMPI PUSH1 0x0 DUP1 REVERT JUMPDEST PUSH1 0x0 SWAP2 DUP3 MSTORE PUSH1 0x20 SWAP1 SWAP2 KECCAK256 ADD SLOAD PUSH1 0x1 PUSH1 0x1 PUSH1 0xA0 SHL SUB AND SWAP1 POP DUP2 JUMP JUMPDEST PUSH1 0x0 SLOAD PUSH1 0x1 PUSH1 0x1 PUSH1 0xA0 SHL SUB AND CALLER EQ PUSH2 0x193B JUMPI PUSH1 0x40 MLOAD PUSH3 0x461BCD PUSH1 0xE5 SHL DUP2 MSTORE PUSH1 0x4 ADD PUSH2 0x5DF SWAP1 PUSH2 0x1C23 JUMP JUMPDEST PUSH1 0xA SWAP4 SWAP1 SWAP4 SSTORE PUSH1 0xB SWAP2 SWAP1 SWAP2 SSTORE PUSH1 0xC SSTORE PUSH1 0xD SSTORE JUMP JUMPDEST PUSH1 0x20 DUP1 DUP3 MSTORE DUP3 MLOAD DUP3 DUP3 ADD DUP2 SWAP1 MSTORE PUSH1 0x0 SWAP2 SWAP1 DUP5 DUP3 ADD SWAP1 PUSH1 0x40 DUP6 ADD SWAP1 DUP5 JUMPDEST DUP2 DUP2 LT ISZERO PUSH2 0x1990 JUMPI DUP4 MLOAD PUSH1 0x1 PUSH1 0x1 PUSH1 0xA0 SHL SUB AND DUP4 MSTORE SWAP3 DUP5 ADD SWAP3 SWAP2 DUP5 ADD SWAP2 PUSH1 0x1 ADD PUSH2 0x196B JUMP JUMPDEST POP SWAP1 SWAP7 SWAP6 POP POP POP POP POP POP JUMP JUMPDEST PUSH1 0x0 PUSH1 0x20 DUP3 DUP5 SUB SLT ISZERO PUSH2 0x19AE JUMPI PUSH1 0x0 DUP1 REVERT JUMPDEST POP CALLDATALOAD SWAP2 SWAP1 POP JUMP JUMPDEST PUSH4 0x4E487B71 PUSH1 0xE0 SHL PUSH1 0x0 MSTORE PUSH1 0x21 PUSH1 0x4 MSTORE PUSH1 0x24 PUSH1 0x0 REVERT JUMPDEST PUSH1 0x1 PUSH1 0x1 PUSH1 0xA0 SHL SUB DUP11 DUP2 AND DUP3 MSTORE DUP10 AND PUSH1 0x20 DUP3 ADD MSTORE PUSH1 0x40 DUP2 ADD DUP9 SWAP1 MSTORE PUSH1 0x60 DUP2 ADD DUP8 SWAP1 MSTORE PUSH1 0x80 DUP2 ADD DUP7 SWAP1 MSTORE PUSH1 0xA0 DUP2 ADD DUP6 SWAP1 MSTORE PUSH1 0xC0 DUP2 ADD DUP5 SWAP1 MSTORE DUP3 ISZERO ISZERO PUSH1 0xE0 DUP3 ADD MSTORE PUSH2 0x120 DUP2 ADD PUSH1 0x4 DUP4 LT PUSH2 0x1A2D JUMPI PUSH4 0x4E487B71 PUSH1 0xE0 SHL PUSH1 0x0 MSTORE PUSH1 0x21 PUSH1 0x4 MSTORE PUSH1 0x24 PUSH1 0x0 REVERT JUMPDEST DUP3 PUSH2 0x100 DUP4 ADD MSTORE SWAP11 SWAP10 POP POP POP POP POP POP POP POP POP POP JUMP JUMPDEST DUP1 CALLDATALOAD PUSH1 0x1 PUSH1 0x1 PUSH1 0xA0 SHL SUB DUP2 AND DUP2 EQ PUSH2 0x1A59 JUMPI PUSH1 0x0 DUP1 REVERT JUMPDEST SWAP2 SWAP1 POP JUMP JUMPDEST PUSH1 0x0 PUSH1 0x20 DUP3 DUP5 SUB SLT ISZERO PUSH2 0x1A70 JUMPI PUSH1 0x0 DUP1 REVERT JUMPDEST PUSH2 0x1A79 DUP3 PUSH2 0x1A42 JUMP JUMPDEST SWAP4 SWAP3 POP POP POP JUMP JUMPDEST PUSH1 0x20 DUP1 DUP3 MSTORE DUP3 MLOAD DUP3 DUP3 ADD DUP2 SWAP1 MSTORE PUSH1 0x0 SWAP2 SWAP1 DUP5 DUP3 ADD SWAP1 PUSH1 0x40 DUP6 ADD SWAP1 DUP5 JUMPDEST DUP2 DUP2 LT ISZERO PUSH2 0x1990 JUMPI DUP4 MLOAD DUP4 MSTORE SWAP3 DUP5 ADD SWAP3 SWAP2 DUP5 ADD SWAP2 PUSH1 0x1 ADD PUSH2 0x1A9C JUMP JUMPDEST DUP1 ISZERO ISZERO DUP2 EQ PUSH2 0x1AC6 JUMPI PUSH1 0x0 DUP1 REVERT JUMPDEST POP JUMP JUMPDEST PUSH1 0x0 DUP1 PUSH1 0x0 DUP1 PUSH1 0x80 DUP6 DUP8 SUB SLT ISZERO PUSH2 0x1ADF JUMPI PUSH1 0x0 DUP1 REVERT JUMPDEST PUSH2 0x1AE8 DUP6 PUSH2 0x1A42 JUMP JUMPDEST SWAP4 POP PUSH1 0x20 DUP6 ADD CALLDATALOAD SWAP3 POP PUSH1 0x40 DUP6 ADD CALLDATALOAD PUSH2 0x1AFF DUP2 PUSH2 0x1AB8 JUMP JUMPDEST SWAP4 SWAP7 SWAP3 SWAP6 POP SWAP3 SWAP4 PUSH1 0x60 ADD CALLDATALOAD SWAP3 POP POP JUMP JUMPDEST PUSH1 0x0 DUP1 PUSH1 0x40 DUP4 DUP6 SUB SLT ISZERO PUSH2 0x1B22 JUMPI PUSH1 0x0 DUP1 REVERT JUMPDEST PUSH2 0x1B2B DUP4 PUSH2 0x1A42 JUMP JUMPDEST SWAP5 PUSH1 0x20 SWAP4 SWAP1 SWAP4 ADD CALLDATALOAD SWAP4 POP POP POP JUMP JUMPDEST PUSH1 0x0 DUP1 DUP4 PUSH1 0x1F DUP5 ADD SLT PUSH2 0x1B4B JUMPI PUSH1 0x0 DUP1 REVERT JUMPDEST POP DUP2 CALLDATALOAD PUSH8 0xFFFFFFFFFFFFFFFF DUP2 GT ISZERO PUSH2 0x1B63 JUMPI PUSH1 0x0 DUP1 REVERT JUMPDEST PUSH1 0x20 DUP4 ADD SWAP2 POP DUP4 PUSH1 0x20 DUP3 PUSH1 0x5 SHL DUP6 ADD ADD GT ISZERO PUSH2 0x1B7E JUMPI PUSH1 0x0 DUP1 REVERT JUMPDEST SWAP3 POP SWAP3 SWAP1 POP JUMP JUMPDEST PUSH1 0x0 DUP1 PUSH1 0x0 DUP1 PUSH1 0x40 DUP6 DUP8 SUB SLT ISZERO PUSH2 0x1B9B JUMPI PUSH1 0x0 DUP1 REVERT JUMPDEST DUP5 CALLDATALOAD PUSH8 0xFFFFFFFFFFFFFFFF DUP1 DUP3 GT ISZERO PUSH2 0x1BB3 JUMPI PUSH1 0x0 DUP1 REVERT JUMPDEST PUSH2 0x1BBF DUP9 DUP4 DUP10 ADD PUSH2 0x1B39 JUMP JUMPDEST SWAP1 SWAP7 POP SWAP5 POP PUSH1 0x20 DUP8 ADD CALLDATALOAD SWAP2 POP DUP1 DUP3 GT ISZERO PUSH2 0x1BD8 JUMPI PUSH1 0x0 DUP1 REVERT JUMPDEST POP PUSH2 0x1BE5 DUP8 DUP3 DUP9 ADD PUSH2 0x1B39 JUMP JUMPDEST SWAP6 SWAP9 SWAP5 SWAP8 POP SWAP6 POP POP POP POP JUMP JUMPDEST PUSH1 0x0 DUP1 PUSH1 0x0 DUP1 PUSH1 0x80 DUP6 DUP8 SUB SLT ISZERO PUSH2 0x1C07 JUMPI PUSH1 0x0 DUP1 REVERT JUMPDEST POP POP DUP3 CALLDATALOAD SWAP5 PUSH1 0x20 DUP5 ADD CALLDATALOAD SWAP5 POP PUSH1 0x40 DUP5 ADD CALLDATALOAD SWAP4 PUSH1 0x60 ADD CALLDATALOAD SWAP3 POP SWAP1 POP JUMP JUMPDEST PUSH1 0x20 DUP1 DUP3 MSTORE PUSH1 0xA SWAP1 DUP3 ADD MSTORE PUSH10 0x27B7363C9037BBB732B9 PUSH1 0xB1 SHL PUSH1 0x40 DUP3 ADD MSTORE PUSH1 0x60 ADD SWAP1 JUMP JUMPDEST PUSH1 0x20 DUP1 DUP3 MSTORE PUSH1 0xA SWAP1 DUP3 ADD MSTORE PUSH10 0x5265656E7472616E6379 PUSH1 0xB0 SHL PUSH1 0x40 DUP3 ADD MSTORE PUSH1 0x60 ADD SWAP1 JUMP JUMPDEST PUSH4 0x4E487B71 PUSH1 0xE0 SHL PUSH1 0x0 MSTORE PUSH1 0x11 PUSH1 0x4 MSTORE PUSH1 0x24 PUSH1 0x0 REVERT JUMPDEST DUP2 DUP2 SUB DUP2 DUP2 GT ISZERO PUSH2 0x1C94 JUMPI PUSH2 0x1C94 PUSH2 0x1C6B JUMP JUMPDEST SWAP3 SWAP2 POP POP JUMP JUMPDEST PUSH1 0x0 PUSH1 0x20 DUP3 DUP5 SUB SLT ISZERO PUSH2 0x1CAC JUMPI PUSH1 0x0 DUP1 REVERT JUMPDEST DUP2 MLOAD PUSH2 0x1A79 DUP2 PUSH2 0x1AB8 JUMP JUMPDEST PUSH1 0x20 DUP1 DUP3 MSTORE PUSH1 0xF SWAP1 DUP3 ADD MSTORE PUSH15 0x151C985B9CD9995C8819985A5B1959 PUSH1 0x8A SHL PUSH1 0x40 DUP3 ADD MSTORE PUSH1 0x60 ADD SWAP1 JUMP JUMPDEST PUSH1 0x0 PUSH1 0x1 DUP3 ADD PUSH2 0x1CF2 JUMPI PUSH2 0x1CF2 PUSH2 0x1C6B JUMP JUMPDEST POP PUSH1 0x1 ADD SWAP1 JUMP JUMPDEST DUP1 DUP3 ADD DUP1 DUP3 GT ISZERO PUSH2 0x1C94 JUMPI PUSH2 0x1C94 PUSH2 0x1C6B JUMP JUMPDEST PUSH1 0x0 DUP3 PUSH2 0x1D29 JUMPI PUSH4 0x4E487B71 PUSH1 0xE0 SHL PUSH1 0x0 MSTORE PUSH1 0x12 PUSH1 0x4 MSTORE PUSH1 0x24 PUSH1 0x0 REVERT JUMPDEST POP DIV SWAP1 JUMP JUMPDEST PUSH1 0x0 DUP2 PUSH2 0x1D3D JUMPI PUSH2 0x1D3D PUSH2 0x1C6B JUMP JUMPDEST POP PUSH1 0x0 NOT ADD SWAP1 JUMP JUMPDEST PUSH1 0x0 PUSH1 0x20 DUP3 DUP5 SUB SLT ISZERO PUSH2 0x1D57 JUMPI PUSH1 0x0 DUP1 REVERT JUMPDEST POP MLOAD SWAP2 SWAP1 POP JUMP JUMPDEST PUSH4 0x4E487B71 PUSH1 0xE0 SHL PUSH1 0x0 MSTORE PUSH1 0x32 PUSH1 0x4 MSTORE PUSH1 0x24 PUSH1 0x0 REVERT INVALID LOG2 PUSH5 0x6970667358 0x22 SLT KECCAK256 DUP11 SWAP15 0x5E 0x4A PUSH8 0x9CA31F87BCEFD9F9 0xD5 0xE EXTCODESIZE DUP2 0xD5 CALL SLOAD 0xF8 SUB 0xBA PUSH31 0xFE6BAC113B48FB6464736F6C63430008130033000000000000000000000000 "},"methodIdentifiers":{"activeBets()":"032ee405","addAllowedToken(address)":"4178617f","allowedTokens(address)":"e744092e","betCounter()":"a416f5ab","bets(uint256)":"22af00fa","cancelBet(uint256)":"357401f5","currentPrices(address)":"a279cb56","feePool()":"ae2e933b","getActiveBetsCount()":"ed53afa3","getAllowedTokens()":"024ece89","getBet(uint256)":"061e494f","getPrice(address)":"41976e09","getUserBets(address)":"2d56657d","lastPriceUpdate(address)":"d29048e7","maxBetAmount()":"cab11d5d","maxDuration()":"6db5c8fd","minBetAmount()":"fa968eea","minDuration()":"56715761","owner()":"8da5cb5b","placeBet(address,uint256,bool,uint256)":"312892bd","priceOracle()":"2630c12f","resolveBet(uint256)":"4c36c36e","setFeePool(address)":"19db2228","setPriceOracle(address)":"530e784f","tokenList(uint256)":"9ead7222","totalBets()":"befa1e2f","totalVolume()":"5f81a57c","updateLimits(uint256,uint256,uint256,uint256)":"fbb55ed2","updatePrice(address,uint256)":"457972de","updatePrices(address[],uint256[])":"96f77060","userBets(address,uint256)":"8068aa68"}}}}}