{
  "_format": "hh-sol-artifact-1",
  "contractName": "FeePool",
  "sourceName": "contracts/FeePool.sol",
  "abi": [
    {
      "inputs": [],
      "stateMutability": "nonpayable",
      "type": "constructor"
    },
    {
      "anonymous": false,
      "inputs": [
        {
          "indexed": false,
          "internalType": "string",
          "name": "contractType",
          "type": "string"
        },
        {
          "indexed": false,
          "internalType": "address",
          "name": "newAddress",
          "type": "address"
        }
      ],
      "name": "ContractUpdated",
      "type": "event"
    },
    {
      "anonymous": false,
      "inputs": [
        {
          "indexed": true,
          "internalType": "address",
          "name": "token",
          "type": "address"
        },
        {
          "indexed": false,
          "internalType": "uint256",
          "name": "amount",
          "type": "uint256"
        },
        {
          "indexed": true,
          "internalType": "address",
          "name": "from",
          "type": "address"
        }
      ],
      "name": "FeeDeposited",
      "type": "event"
    },
    {
      "anonymous": false,
      "inputs": [
        {
          "indexed": true,
          "internalType": "address",
          "name": "winner",
          "type": "address"
        },
        {
          "indexed": true,
          "internalType": "address",
          "name": "token",
          "type": "address"
        },
        {
          "indexed": false,
          "internalType": "uint256",
          "name": "amount",
          "type": "uint256"
        }
      ],
      "name": "RewardDistributed",
      "type": "event"
    },
    {
      "anonymous": false,
      "inputs": [
        {
          "indexed": true,
          "internalType": "address",
          "name": "token",
          "type": "address"
        }
      ],
      "name": "TokenAdded",
      "type": "event"
    },
    {
      "inputs": [
        {
          "internalType": "address",
          "name": "token",
          "type": "address"
        }
      ],
      "name": "addAllowedToken",
      "outputs": [],
      "stateMutability": "nonpayable",
      "type": "function"
    },
    {
      "inputs": [
        {
          "internalType": "address",
          "name": "",
          "type": "address"
        }
      ],
      "name": "allowedTokens",
      "outputs": [
        {
          "internalType": "bool",
          "name": "",
          "type": "bool"
        }
      ],
      "stateMutability": "view",
      "type": "function"
    },
    {
      "inputs": [],
      "name": "ammContract",
      "outputs": [
        {
          "internalType": "address",
          "name": "",
          "type": "address"
        }
      ],
      "stateMutability": "view",
      "type": "function"
    },
    {
      "inputs": [
        {
          "internalType": "address",
          "name": "token",
          "type": "address"
        },
        {
          "internalType": "uint256",
          "name": "amount",
          "type": "uint256"
        }
      ],
      "name": "deposit",
      "outputs": [],
      "stateMutability": "nonpayable",
      "type": "function"
    },
    {
      "inputs": [
        {
          "internalType": "address",
          "name": "token",
          "type": "address"
        },
        {
          "internalType": "uint256",
          "name": "amount",
          "type": "uint256"
        }
      ],
      "name": "depositFee",
      "outputs": [],
      "stateMutability": "nonpayable",
      "type": "function"
    },
    {
      "inputs": [
        {
          "internalType": "address",
          "name": "winner",
          "type": "address"
        },
        {
          "internalType": "address",
          "name": "token",
          "type": "address"
        }
      ],
      "name": "distributeReward",
      "outputs": [
        {
          "internalType": "uint256",
          "name": "",
          "type": "uint256"
        }
      ],
      "stateMutability": "nonpayable",
      "type": "function"
    },
    {
      "inputs": [
        {
          "internalType": "address",
          "name": "token",
          "type": "address"
        },
        {
          "internalType": "uint256",
          "name": "amount",
          "type": "uint256"
        }
      ],
      "name": "emergencyWithdraw",
      "outputs": [],
      "stateMutability": "nonpayable",
      "type": "function"
    },
    {
      "inputs": [],
      "name": "getAllPoolBalances",
      "outputs": [
        {
          "internalType": "address[]",
          "name": "tokens",
          "type": "address[]"
        },
        {
          "internalType": "uint256[]",
          "name": "balances",
          "type": "uint256[]"
        }
      ],
      "stateMutability": "view",
      "type": "function"
    },
    {
      "inputs": [
        {
          "internalType": "address",
          "name": "token",
          "type": "address"
        }
      ],
      "name": "getPoolBalance",
      "outputs": [
        {
          "internalType": "uint256",
          "name": "",
          "type": "uint256"
        }
      ],
      "stateMutability": "view",
      "type": "function"
    },
    {
      "inputs": [],
      "name": "getTokenList",
      "outputs": [
        {
          "internalType": "address[]",
          "name": "",
          "type": "address[]"
        }
      ],
      "stateMutability": "view",
      "type": "function"
    },
    {
      "inputs": [],
      "name": "owner",
      "outputs": [
        {
          "internalType": "address",
          "name": "",
          "type": "address"
        }
      ],
      "stateMutability": "view",
      "type": "function"
    },
    {
      "inputs": [
        {
          "internalType": "address",
          "name": "",
          "type": "address"
        }
      ],
      "name": "poolBalances",
      "outputs": [
        {
          "internalType": "uint256",
          "name": "",
          "type": "uint256"
        }
      ],
      "stateMutability": "view",
      "type": "function"
    },
    {
      "inputs": [],
      "name": "predictionContract",
      "outputs": [
        {
          "internalType": "address",
          "name": "",
          "type": "address"
        }
      ],
      "stateMutability": "view",
      "type": "function"
    },
    {
      "inputs": [
        {
          "internalType": "address",
          "name": "_amm",
          "type": "address"
        }
      ],
      "name": "setAMMContract",
      "outputs": [],
      "stateMutability": "nonpayable",
      "type": "function"
    },
    {
      "inputs": [
        {
          "internalType": "address",
          "name": "_prediction",
          "type": "address"
        }
      ],
      "name": "setPredictionContract",
      "outputs": [],
      "stateMutability": "nonpayable",
      "type": "function"
    },
    {
      "inputs": [
        {
          "internalType": "uint256",
          "name": "",
          "type": "uint256"
        }
      ],
      "name": "tokenList",
      "outputs": [
        {
          "internalType": "address",
          "name": "",
          "type": "address"
        }
      ],
      "stateMutability": "view",
      "type": "function"
    }
  ],
  "bytecode": "0x608060405234801561001057600080fd5b50600080546001600160a01b0319163317905561105b806100326000396000f3fe608060405234801561001057600080fd5b50600436106101005760003560e01c80639155ccc811610097578063c6bbcaa511610066578063c6bbcaa51461022c578063d28682ea1461023f578063e744092e14610268578063f4fd47cf1461029b57600080fd5b80639155ccc8146101c557806395ccea67146101f35780639997d09f146102065780639ead72221461021957600080fd5b80634178617f116100d35780634178617f1461017657806347e7ef24146101895780637fba94c41461019c5780638da5cb5b146101b257600080fd5b8063204c671214610105578063273cbaa01461011a5780633b8351d2146101385780633bfc26871461014b575b600080fd5b610118610113366004610dcd565b6102ae565b005b61012261039c565b60405161012f9190610e33565b60405180910390f35b610118610146366004610e46565b6103fe565b60015461015e906001600160a01b031681565b6040516001600160a01b03909116815260200161012f565b610118610184366004610dcd565b610618565b610118610197366004610e46565b610473565b6101a4610773565b60405161012f929190610e70565b60005461015e906001600160a01b031681565b6101e56101d3366004610dcd565b60036020526000908152604090205481565b60405190815260200161012f565b610118610201366004610e46565b6108e6565b60025461015e906001600160a01b031681565b61015e610227366004610ec7565b610a33565b61011861023a366004610dcd565b610a5d565b6101e561024d366004610dcd565b6001600160a01b031660009081526003602052604090205490565b61028b610276366004610dcd565b60046020526000908152604090205460ff1681565b604051901515815260200161012f565b6101e56102a9366004610ee0565b610b42565b6000546001600160a01b031633146102e15760405162461bcd60e51b81526004016102d890610f13565b60405180910390fd5b6001600160a01b0381166103295760405162461bcd60e51b815260206004820152600f60248201526e496e76616c6964206164647265737360881b60448201526064016102d8565b600180546001600160a01b0319166001600160a01b0383169081179091556040805181815260039181019190915262414d4d60e81b606082015260208101919091527ff611fec7babefd259c57ea5b6006acff8140ab17bb816c65ba0aa7e36c09caa8906080015b60405180910390a150565b606060058054806020026020016040519081016040528092919081815260200182805480156103f457602002820191906000526020600020905b81546001600160a01b031681526001909101906020018083116103d6575b5050505050905090565b6001546001600160a01b031633148061042157506002546001600160a01b031633145b8061043657506000546001600160a01b031633145b6104735760405162461bcd60e51b815260206004820152600e60248201526d139bdd08185d5d1a1bdc9a5e995960921b60448201526064016102d8565b6001600160a01b03821660009081526004602052604090205460ff166104cf5760405162461bcd60e51b8152602060048201526011602482015270151bdad95b881b9bdd08185b1b1bddd959607a1b60448201526064016102d8565b600081116105145760405162461bcd60e51b81526020600482015260126024820152710416d6f756e74206d757374206265203e20360741b60448201526064016102d8565b6040516323b872dd60e01b8152336004820152306024820152604481018290526001600160a01b038316906323b872dd906064016020604051808303816000875af1158015610567573d6000803e3d6000fd5b505050506040513d601f19601f8201168201806040525081019061058b9190610f37565b6105a75760405162461bcd60e51b81526004016102d890610f59565b6001600160a01b038216600090815260036020526040812080548392906105cf908490610f98565b909155505060405181815233906001600160a01b038416907f449c8cccb1ad1f9450ca24bba7ee4a9095fe1937efe01738b2dd0ca59ad4b7999060200160405180910390a35050565b6000546001600160a01b031633146106425760405162461bcd60e51b81526004016102d890610f13565b6001600160a01b0381166106885760405162461bcd60e51b815260206004820152600d60248201526c24b73b30b634b2103a37b5b2b760991b60448201526064016102d8565b6001600160a01b03811660009081526004602052604090205460ff16156106e75760405162461bcd60e51b8152602060048201526013602482015272151bdad95b88185b1c9958591e481859191959606a1b60448201526064016102d8565b6001600160a01b038116600081815260046020526040808220805460ff1916600190811790915560058054918201815583527f036b6384b5eca791c62761152d0c79bb0604c104a5fb6f4eb0703f3154bb3db00180546001600160a01b03191684179055517f784c8f4dbf0ffedd6e72c76501c545a70f8b203b30a26ce542bf92ba87c248a49190a250565b60055460609081908067ffffffffffffffff81111561079457610794610fab565b6040519080825280602002602001820160405280156107bd578160200160208202803683370190505b5092508067ffffffffffffffff8111156107d9576107d9610fab565b604051908082528060200260200182016040528015610802578160200160208202803683370190505b50915060005b818110156108e0576005818154811061082357610823610fc1565b9060005260206000200160009054906101000a90046001600160a01b031684828151811061085357610853610fc1565b60200260200101906001600160a01b031690816001600160a01b031681525050600360006005838154811061088a5761088a610fc1565b60009182526020808320909101546001600160a01b0316835282019290925260400190205483518490839081106108c3576108c3610fc1565b6020908102919091010152806108d881610fd7565b915050610808565b50509091565b6000546001600160a01b031633146109105760405162461bcd60e51b81526004016102d890610f13565b6001600160a01b03821660009081526003602052604090205481111561096f5760405162461bcd60e51b8152602060048201526014602482015273496e73756666696369656e742062616c616e636560601b60448201526064016102d8565b6001600160a01b03821660009081526003602052604081208054839290610997908490610ff0565b909155505060005460405163a9059cbb60e01b81526001600160a01b039182166004820152602481018390529083169063a9059cbb906044016020604051808303816000875af11580156109ef573d6000803e3d6000fd5b505050506040513d601f19601f82011682018060405250810190610a139190610f37565b610a2f5760405162461bcd60e51b81526004016102d890610f59565b5050565b60058181548110610a4357600080fd5b6000918252602090912001546001600160a01b0316905081565b6000546001600160a01b03163314610a875760405162461bcd60e51b81526004016102d890610f13565b6001600160a01b038116610acf5760405162461bcd60e51b815260206004820152600f60248201526e496e76616c6964206164647265737360881b60448201526064016102d8565b600280546001600160a01b0319166001600160a01b03831690811790915560408051818152600a9181019190915269283932b234b1ba34b7b760b11b606082015260208101919091527ff611fec7babefd259c57ea5b6006acff8140ab17bb816c65ba0aa7e36c09caa890608001610391565b6001546000906001600160a01b0316331480610b6857506002546001600160a01b031633145b80610b7d57506000546001600160a01b031633145b610bba5760405162461bcd60e51b815260206004820152600e60248201526d139bdd08185d5d1a1bdc9a5e995960921b60448201526064016102d8565b6001600160a01b038316610c015760405162461bcd60e51b815260206004820152600e60248201526d24b73b30b634b2103bb4b73732b960911b60448201526064016102d8565b6001600160a01b03821660009081526004602052604090205460ff16610c5d5760405162461bcd60e51b8152602060048201526011602482015270151bdad95b881b9bdd08185b1b1bddd959607a1b60448201526064016102d8565b6001600160a01b03821660009081526003602052604081205490819003610c88576000915050610dab565b6000610c95600a83611003565b90508015610da7576001600160a01b03841660009081526003602052604081208054839290610cc5908490610ff0565b909155505060405163a9059cbb60e01b81526001600160a01b0386811660048301526024820183905285169063a9059cbb906044016020604051808303816000875af1158015610d19573d6000803e3d6000fd5b505050506040513d601f19601f82011682018060405250810190610d3d9190610f37565b610d595760405162461bcd60e51b81526004016102d890610f59565b836001600160a01b0316856001600160a01b03167f5303cb8fc2ab504b092b4799d2c00f2209ee4eee6b03a168171dc140ed7403ee83604051610d9e91815260200190565b60405180910390a35b9150505b92915050565b80356001600160a01b0381168114610dc857600080fd5b919050565b600060208284031215610ddf57600080fd5b610de882610db1565b9392505050565b600081518084526020808501945080840160005b83811015610e285781516001600160a01b031687529582019590820190600101610e03565b509495945050505050565b602081526000610de86020830184610def565b60008060408385031215610e5957600080fd5b610e6283610db1565b946020939093013593505050565b604081526000610e836040830185610def565b82810360208481019190915284518083528582019282019060005b81811015610eba57845183529383019391830191600101610e9e565b5090979650505050505050565b600060208284031215610ed957600080fd5b5035919050565b60008060408385031215610ef357600080fd5b610efc83610db1565b9150610f0a60208401610db1565b90509250929050565b6020808252600a908201526927b7363c9037bbb732b960b11b604082015260600190565b600060208284031215610f4957600080fd5b81518015158114610de857600080fd5b6020808252600f908201526e151c985b9cd9995c8819985a5b1959608a1b604082015260600190565b634e487b7160e01b600052601160045260246000fd5b80820180821115610dab57610dab610f82565b634e487b7160e01b600052604160045260246000fd5b634e487b7160e01b600052603260045260246000fd5b600060018201610fe957610fe9610f82565b5060010190565b81810381811115610dab57610dab610f82565b60008261102057634e487b7160e01b600052601260045260246000fd5b50049056fea2646970667358221220d2f258f89089372cc8e8e58911128709f691d76acd5c92ae55c74d6712479dec64736f6c63430008130033",
  "linkReferences": {},
  "deployedLinkReferences": {}
}