{
  "_format": "hh-sol-artifact-1",
  "contractName": "MiniAMM",
  "sourceName": "contracts/MiniAMM.sol",
  "abi": [
    {
      "inputs": [
        {
          "internalType": "address",
          "name": "_feePool",
          "type": "address"
        }
      ],
      "stateMutability": "nonpayable",
      "type": "constructor"
    },
    {
      "anonymous": false,
      "inputs": [
        {
          "indexed": true,
          "internalType": "bytes32",
          "name": "pairId",
          "type": "bytes32"
        },
        {
          "indexed": true,
          "internalType": "address",
          "name": "provider",
          "type": "address"
        },
        {
          "indexed": false,
          "internalType": "uint256",
          "name": "amountA",
          "type": "uint256"
        },
        {
          "indexed": false,
          "internalType": "uint256",
          "name": "amountB",
          "type": "uint256"
        },
        {
          "indexed": false,
          "internalType": "uint256",
          "name": "liquidity",
          "type": "uint256"
        }
      ],
      "name": "LiquidityAdded",
      "type": "event"
    },
    {
      "anonymous": false,
      "inputs": [
        {
          "indexed": true,
          "internalType": "bytes32",
          "name": "pairId",
          "type": "bytes32"
        },
        {
          "indexed": true,
          "internalType": "address",
          "name": "provider",
          "type": "address"
        },
        {
          "indexed": false,
          "internalType": "uint256",
          "name": "amountA",
          "type": "uint256"
        },
        {
          "indexed": false,
          "internalType": "uint256",
          "name": "amountB",
          "type": "uint256"
        },
        {
          "indexed": false,
          "internalType": "uint256",
          "name": "liquidity",
          "type": "uint256"
        }
      ],
      "name": "LiquidityRemoved",
      "type": "event"
    },
    {
      "anonymous": false,
      "inputs": [
        {
          "indexed": true,
          "internalType": "bytes32",
          "name": "pairId",
          "type": "bytes32"
        },
        {
          "indexed": false,
          "internalType": "address",
          "name": "tokenA",
          "type": "address"
        },
        {
          "indexed": false,
          "internalType": "address",
          "name": "tokenB",
          "type": "address"
        }
      ],
      "name": "PairCreated",
      "type": "event"
    },
    {
      "anonymous": false,
      "inputs": [
        {
          "indexed": true,
          "internalType": "bytes32",
          "name": "pairId",
          "type": "bytes32"
        },
        {
          "indexed": true,
          "internalType": "address",
          "name": "user",
          "type": "address"
        },
        {
          "indexed": false,
          "internalType": "address",
          "name": "tokenIn",
          "type": "address"
        },
        {
          "indexed": false,
          "internalType": "address",
          "name": "tokenOut",
          "type": "address"
        },
        {
          "indexed": false,
          "internalType": "uint256",
          "name": "amountIn",
          "type": "uint256"
        },
        {
          "indexed": false,
          "internalType": "uint256",
          "name": "amountOut",
          "type": "uint256"
        },
        {
          "indexed": false,
          "internalType": "uint256",
          "name": "fee",
          "type": "uint256"
        }
      ],
      "name": "Swap",
      "type": "event"
    },
    {
      "inputs": [],
      "name": "FEE_DENOMINATOR",
      "outputs": [
        {
          "internalType": "uint256",
          "name": "",
          "type": "uint256"
        }
      ],
      "stateMutability": "view",
      "type": "function"
    },
    {
      "inputs": [],
      "name": "FEE_NUMERATOR",
      "outputs": [
        {
          "internalType": "uint256",
          "name": "",
          "type": "uint256"
        }
      ],
      "stateMutability": "view",
      "type": "function"
    },
    {
      "inputs": [],
      "name": "MINIMUM_LIQUIDITY",
      "outputs": [
        {
          "internalType": "uint256",
          "name": "",
          "type": "uint256"
        }
      ],
      "stateMutability": "view",
      "type": "function"
    },
    {
      "inputs": [
        {
          "internalType": "address",
          "name": "tokenA",
          "type": "address"
        },
        {
          "internalType": "address",
          "name": "tokenB",
          "type": "address"
        },
        {
          "internalType": "uint256",
          "name": "amountA",
          "type": "uint256"
        },
        {
          "internalType": "uint256",
          "name": "amountB",
          "type": "uint256"
        }
      ],
      "name": "addLiquidity",
      "outputs": [
        {
          "internalType": "uint256",
          "name": "liquidity",
          "type": "uint256"
        }
      ],
      "stateMutability": "nonpayable",
      "type": "function"
    },
    {
      "inputs": [
        {
          "internalType": "address",
          "name": "tokenA",
          "type": "address"
        },
        {
          "internalType": "address",
          "name": "tokenB",
          "type": "address"
        }
      ],
      "name": "createPair",
      "outputs": [
        {
          "internalType": "bytes32",
          "name": "",
          "type": "bytes32"
        }
      ],
      "stateMutability": "nonpayable",
      "type": "function"
    },
    {
      "inputs": [],
      "name": "feePool",
      "outputs": [
        {
          "internalType": "contract FeePool",
          "name": "",
          "type": "address"
        }
      ],
      "stateMutability": "view",
      "type": "function"
    },
    {
      "inputs": [],
      "name": "getAllPairs",
      "outputs": [
        {
          "internalType": "bytes32[]",
          "name": "",
          "type": "bytes32[]"
        }
      ],
      "stateMutability": "view",
      "type": "function"
    },
    {
      "inputs": [
        {
          "internalType": "address",
          "name": "tokenIn",
          "type": "address"
        },
        {
          "internalType": "address",
          "name": "tokenOut",
          "type": "address"
        },
        {
          "internalType": "uint256",
          "name": "amountIn",
          "type": "uint256"
        }
      ],
      "name": "getAmountOut",
      "outputs": [
        {
          "internalType": "uint256",
          "name": "amountOut",
          "type": "uint256"
        },
        {
          "internalType": "uint256",
          "name": "fee",
          "type": "uint256"
        }
      ],
      "stateMutability": "view",
      "type": "function"
    },
    {
      "inputs": [
        {
          "internalType": "address",
          "name": "tokenA",
          "type": "address"
        },
        {
          "internalType": "address",
          "name": "tokenB",
          "type": "address"
        }
      ],
      "name": "getPairId",
      "outputs": [
        {
          "internalType": "bytes32",
          "name": "",
          "type": "bytes32"
        }
      ],
      "stateMutability": "pure",
      "type": "function"
    },
    {
      "inputs": [
        {
          "internalType": "bytes32",
          "name": "pairId",
          "type": "bytes32"
        }
      ],
      "name": "getPairInfo",
      "outputs": [
        {
          "internalType": "address",
          "name": "tokenA",
          "type": "address"
        },
        {
          "internalType": "address",
          "name": "tokenB",
          "type": "address"
        },
        {
          "internalType": "uint256",
          "name": "reserveA",
          "type": "uint256"
        },
        {
          "internalType": "uint256",
          "name": "reserveB",
          "type": "uint256"
        },
        {
          "internalType": "uint256",
          "name": "totalLiquidity",
          "type": "uint256"
        }
      ],
      "stateMutability": "view",
      "type": "function"
    },
    {
      "inputs": [
        {
          "internalType": "address",
          "name": "tokenA",
          "type": "address"
        },
        {
          "internalType": "address",
          "name": "tokenB",
          "type": "address"
        }
      ],
      "name": "getReserves",
      "outputs": [
        {
          "internalType": "uint256",
          "name": "reserveA",
          "type": "uint256"
        },
        {
          "internalType": "uint256",
          "name": "reserveB",
          "type": "uint256"
        }
      ],
      "stateMutability": "view",
      "type": "function"
    },
    {
      "inputs": [
        {
          "internalType": "bytes32",
          "name": "pairId",
          "type": "bytes32"
        },
        {
          "internalType": "address",
          "name": "user",
          "type": "address"
        }
      ],
      "name": "getUserLiquidity",
      "outputs": [
        {
          "internalType": "uint256",
          "name": "liquidity",
          "type": "uint256"
        },
        {
          "internalType": "uint256",
          "name": "depositedA",
          "type": "uint256"
        },
        {
          "internalType": "uint256",
          "name": "depositedB",
          "type": "uint256"
        }
      ],
      "stateMutability": "view",
      "type": "function"
    },
    {
      "inputs": [
        {
          "internalType": "bytes32",
          "name": "",
          "type": "bytes32"
        },
        {
          "internalType": "address",
          "name": "",
          "type": "address"
        }
      ],
      "name": "liquidityPositions",
      "outputs": [
        {
          "internalType": "uint256",
          "name": "liquidity",
          "type": "uint256"
        },
        {
          "internalType": "uint256",
          "name": "depositedA",
          "type": "uint256"
        },
        {
          "internalType": "uint256",
          "name": "depositedB",
          "type": "uint256"
        }
      ],
      "stateMutability": "view",
      "type": "function"
    },
    {
      "inputs": [],
      "name": "owner",
      "outputs": [
        {
          "internalType": "address",
          "name": "",
          "type": "address"
        }
      ],
      "stateMutability": "view",
      "type": "function"
    },
    {
      "inputs": [
        {
          "internalType": "uint256",
          "name": "",
          "type": "uint256"
        }
      ],
      "name": "pairIds",
      "outputs": [
        {
          "internalType": "bytes32",
          "name": "",
          "type": "bytes32"
        }
      ],
      "stateMutability": "view",
      "type": "function"
    },
    {
      "inputs": [
        {
          "internalType": "bytes32",
          "name": "",
          "type": "bytes32"
        }
      ],
      "name": "pairs",
      "outputs": [
        {
          "internalType": "address",
          "name": "tokenA",
          "type": "address"
        },
        {
          "internalType": "address",
          "name": "tokenB",
          "type": "address"
        },
        {
          "internalType": "uint256",
          "name": "reserveA",
          "type": "uint256"
        },
        {
          "internalType": "uint256",
          "name": "reserveB",
          "type": "uint256"
        },
        {
          "internalType": "uint256",
          "name": "totalLiquidity",
          "type": "uint256"
        },
        {
          "internalType": "bool",
          "name": "exists",
          "type": "bool"
        }
      ],
      "stateMutability": "view",
      "type": "function"
    },
    {
      "inputs": [
        {
          "internalType": "address",
          "name": "tokenA",
          "type": "address"
        },
        {
          "internalType": "address",
          "name": "tokenB",
          "type": "address"
        },
        {
          "internalType": "uint256",
          "name": "liquidityAmount",
          "type": "uint256"
        }
      ],
      "name": "removeLiquidity",
      "outputs": [
        {
          "internalType": "uint256",
          "name": "amountA",
          "type": "uint256"
        },
        {
          "internalType": "uint256",
          "name": "amountB",
          "type": "uint256"
        }
      ],
      "stateMutability": "nonpayable",
      "type": "function"
    },
    {
      "inputs": [
        {
          "internalType": "address",
          "name": "_feePool",
          "type": "address"
        }
      ],
      "name": "setFeePool",
      "outputs": [],
      "stateMutability": "nonpayable",
      "type": "function"
    },
    {
      "inputs": [
        {
          "internalType": "address",
          "name": "tokenIn",
          "type": "address"
        },
        {
          "internalType": "address",
          "name": "tokenOut",
          "type": "address"
        },
        {
          "internalType": "uint256",
          "name": "amountIn",
          "type": "uint256"
        }
      ],
      "name": "swap",
      "outputs": [
        {
          "internalType": "uint256",
          "name": "amountOut",
          "type": "uint256"
        }
      ],
      "stateMutability": "nonpayable",
      "type": "function"
    },
    {
      "inputs": [],
      "name": "totalFeesCollected",
      "outputs": [
        {
          "internalType": "uint256",
          "name": "",
          "type": "uint256"
        }
      ],
      "stateMutability": "view",
      "type": "function"
    },
    {
      "inputs": [],
      "name": "totalSwapVolume",
      "outputs": [
        {
          "internalType": "uint256",
          "name": "",
          "type": "uint256"
        }
      ],
      "stateMutability": "view",
      "type": "function"
    }
  ],
  "bytecode": "0x608060405234801561001057600080fd5b50604051611bf5380380611bf583398101604081905261002f91610062565b60008054336001600160a01b031991821617909155600180549091166001600160a01b0392909216919091179055610092565b60006020828403121561007457600080fd5b81516001600160a01b038116811461008b57600080fd5b9392505050565b611b54806100a16000396000f3fe608060405234801561001057600080fd5b50600436106101375760003560e01c8063979a4dbd116100b8578063cf6c62ea1161007c578063cf6c62ea14610393578063d52bb6f4146103a6578063d73792a91461033d578063d752fab2146103b9578063df791e50146103cc578063f800ece9146103df57600080fd5b8063979a4dbd14610317578063ae2e933b1461032a578063ba9a7a561461033d578063c9c6539614610346578063cc5d00c31461035957600080fd5b806341cd47bf116100ff57806341cd47bf146102245780634aa066521461022c57806360c6d8ae14610254578063673e04811461025d5780638da5cb5b146102ec57600080fd5b806301b840651461013c5780630831fa2e1461015857806319db2228146101b657806326d78678146101cb5780633f92a33914610211575b600080fd5b61014560055481565b6040519081526020015b60405180910390f35b61019b6101663660046118b3565b60009182526004602090815260408084206001600160a01b039390931684529190529020805460018201546002909201549092565b6040805193845260208401929092529082015260600161014f565b6101c96101c43660046118df565b6103f4565b005b6101de6101d9366004611901565b6104aa565b604080516001600160a01b039687168152959094166020860152928401919091526060830152608082015260a00161014f565b61014561021f36600461191a565b61051a565b610145600381565b61023f61023a366004611944565b610591565b6040805192835260208301919091520161014f565b61014560065481565b6102b261026b366004611901565b60026020819052600091825260409091208054600182015492820154600383015460048401546005909401546001600160a01b039384169590931693919290919060ff1686565b604080516001600160a01b0397881681529690951660208701529385019290925260608401526080830152151560a082015260c00161014f565b6000546102ff906001600160a01b031681565b6040516001600160a01b03909116815260200161014f565b610145610325366004611901565b610685565b6001546102ff906001600160a01b031681565b6101456103e881565b61014561035436600461191a565b6106a6565b61019b6103673660046118b3565b600460209081526000928352604080842090915290825290208054600182015460029092015490919083565b6101456103a1366004611980565b61095b565b61023f6103b436600461191a565b610e01565b61023f6103c7366004611944565b610e88565b6101456103da366004611944565b611248565b6103e76117d5565b60405161014f91906119c2565b6000546001600160a01b031633146104405760405162461bcd60e51b815260206004820152600a60248201526927b7363c9037bbb732b960b11b60448201526064015b60405180910390fd5b6001600160a01b0381166104885760405162461bcd60e51b815260206004820152600f60248201526e496e76616c6964206164647265737360881b6044820152606401610437565b600180546001600160a01b0319166001600160a01b0392909216919091179055565b60008181526002602052604081206005810154829182918291829160ff166104e45760405162461bcd60e51b815260040161043790611a06565b80546001820154600283015460038401546004909401546001600160a01b039384169b9390921699509750919550909350915050565b6000806000836001600160a01b0316856001600160a01b03161061053f578385610542565b84845b6040516bffffffffffffffffffffffff19606084811b8216602084015283901b166034820152919350915060480160405160208183030381529060405280519060200120925050505b92915050565b60008060006105a0868661051a565b600081815260026020526040902060058101549192509060ff166105d65760405162461bcd60e51b815260040161043790611a06565b805460009081906001600160a01b038a81169116146105fe5782600301548360020154610609565b826002015483600301545b91509150816000148061061a575080155b1561062f57600080955095505050505061067d565b6103e861063d600389611a49565b6106479190611a60565b945060006106558689611a82565b90506106618184611a95565b61066b8383611a49565b6106759190611a60565b965050505050505b935093915050565b6003818154811061069557600080fd5b600091825260209091200154905081565b600080546001600160a01b031633146106ee5760405162461bcd60e51b815260206004820152600a60248201526927b7363c9037bbb732b960b11b6044820152606401610437565b816001600160a01b0316836001600160a01b0316036107425760405162461bcd60e51b815260206004820152601060248201526f4964656e746963616c20746f6b656e7360801b6044820152606401610437565b6001600160a01b0383161580159061076257506001600160a01b03821615155b61079d5760405162461bcd60e51b815260206004820152600c60248201526b5a65726f206164647265737360a01b6044820152606401610437565b60006107a9848461051a565b60008181526002602052604090206005015490915060ff16156107fc5760405162461bcd60e51b815260206004820152600b60248201526a506169722065786973747360a81b6044820152606401610437565b600080846001600160a01b0316866001600160a01b03161061081f578486610822565b85855b6040805160c0810182526001600160a01b038085168252808416602080840191825260008486018181526060860182815260808701838152600160a089018181528f86526002968790528a862099518a54908a166001600160a01b0319918216178b5597518a8301805491909a1698169790971790975591519387019390935591516003808701919091559151600486015591516005909401805494151560ff199095169490941790935582549182018355919091527fc2575a0e9e593c00f959f8c92f12db2869c3395a3b0502d05e2516446f71f85b0186905551919350915083907faff90cfc97c741e6d1ffffa62656c16a763f41dc773055d7b0c36950a823babf9061094990859085906001600160a01b0392831681529116602082015260400190565b60405180910390a25090949350505050565b60075460009060ff16156109815760405162461bcd60e51b815260040161043790611aa8565b6007805460ff19166001179055821580159061099d5750600082115b6109df5760405162461bcd60e51b81526020600482015260136024820152720416d6f756e7473206d757374206265203e203606c1b6044820152606401610437565b60006109eb868661051a565b600081815260026020526040902060058101549192509060ff16610a215760405162461bcd60e51b815260040161043790611a06565b600080876001600160a01b0316896001600160a01b031610610a44578587610a47565b86865b84546040516323b872dd60e01b8152336004820152306024820152604481018490529294509092506001600160a01b0316906323b872dd906064016020604051808303816000875af1158015610aa1573d6000803e3d6000fd5b505050506040513d601f19601f82011682018060405250810190610ac59190611acc565b610b055760405162461bcd60e51b8152602060048201526011602482015270151c985b9cd9995c88104819985a5b1959607a1b6044820152606401610437565b60018301546040516323b872dd60e01b8152336004820152306024820152604481018390526001600160a01b03909116906323b872dd906064016020604051808303816000875af1158015610b5e573d6000803e3d6000fd5b505050506040513d601f19601f82011682018060405250810190610b829190611acc565b610bc25760405162461bcd60e51b8152602060048201526011602482015270151c985b9cd9995c88108819985a5b1959607a1b6044820152606401610437565b8260040154600003610c44576103e8610be3610bde8385611a49565b61182d565b610bed9190611a82565b945060008511610c3f5760405162461bcd60e51b815260206004820152601e60248201527f496e73756666696369656e7420696e697469616c206c697175696469747900006044820152606401610437565b610c9e565b60008360020154846004015484610c5b9190611a49565b610c659190611a60565b905060008460030154856004015484610c7e9190611a49565b610c889190611a60565b9050808210610c975780610c99565b815b965050505b60008511610cee5760405162461bcd60e51b815260206004820152601d60248201527f496e73756666696369656e74206c6971756964697479206d696e7465640000006044820152606401610437565b81836002016000828254610d029190611a95565b9250508190555080836003016000828254610d1d9190611a95565b9250508190555084836004016000828254610d389190611a95565b909155505060008481526004602090815260408083203384529091528120805490918791839190610d6a908490611a95565b9250508190555082816001016000828254610d859190611a95565b9250508190555081816002016000828254610da09190611a95565b90915550506040805184815260208101849052908101879052339086907f9c8e2178a53b464e8c6d21c6d0d1f5189e5d2f6f6a79237ba611cf996a6e6b329060600160405180910390a350505050506007805460ff19169055949350505050565b6000806000610e10858561051a565b600081815260026020526040902060058101549192509060ff16610e465760405162461bcd60e51b815260040161043790611a06565b80546001600160a01b0390811690871603610e705780600201548160030154935093505050610e81565b806003015481600201549350935050505b9250929050565b600754600090819060ff1615610eb05760405162461bcd60e51b815260040161043790611aa8565b6007805460ff191660011790556000610ec9868661051a565b600081815260026020526040902060058101549192509060ff16610eff5760405162461bcd60e51b815260040161043790611a06565b600082815260046020908152604080832033845290915290208054861115610f395760405162461bcd60e51b815260040161043790611aee565b60008611610f7e5760405162461bcd60e51b81526020600482015260126024820152710416d6f756e74206d757374206265203e20360741b6044820152606401610437565b60008260040154836002015488610f959190611a49565b610f9f9190611a60565b905060008360040154846003015489610fb89190611a49565b610fc29190611a60565b9050600082118015610fd45750600081115b6110175760405162461bcd60e51b8152602060048201526014602482015273496e73756666696369656e7420616d6f756e747360601b6044820152606401610437565b8184600201600082825461102b9190611a82565b92505081905550808460030160008282546110469190611a82565b92505081905550878460040160008282546110619190611a82565b909155505082548890849060009061107a908490611a82565b9091555050835460405163a9059cbb60e01b8152336004820152602481018490526001600160a01b039091169063a9059cbb906044016020604051808303816000875af11580156110cf573d6000803e3d6000fd5b505050506040513d601f19601f820116820180604052508101906110f39190611acc565b6111335760405162461bcd60e51b8152602060048201526011602482015270151c985b9cd9995c88104819985a5b1959607a1b6044820152606401610437565b600184015460405163a9059cbb60e01b8152336004820152602481018390526001600160a01b039091169063a9059cbb906044016020604051808303816000875af1158015611186573d6000803e3d6000fd5b505050506040513d601f19601f820116820180604052508101906111aa9190611acc565b6111ea5760405162461bcd60e51b8152602060048201526011602482015270151c985b9cd9995c88108819985a5b1959607a1b6044820152606401610437565b6040805183815260208101839052908101899052339086907f1644e236c5520c62ce0dee793b42f87f940781d55b02c890fbbcdfff1ee5e2519060600160405180910390a36007805460ff1916905590999098509650505050505050565b60075460009060ff161561126e5760405162461bcd60e51b815260040161043790611aa8565b6007805460ff19166001179055816112bd5760405162461bcd60e51b81526020600482015260126024820152710416d6f756e74206d757374206265203e20360741b6044820152606401610437565b826001600160a01b0316846001600160a01b03160361130b5760405162461bcd60e51b815260206004820152600a60248201526929b0b6b2903a37b5b2b760b11b6044820152606401610437565b6000611317858561051a565b600081815260026020526040902060058101549192509060ff1661134d5760405162461bcd60e51b815260040161043790611a06565b805460009081906001600160a01b038981169116146113755782600301548360020154611380565b826002015483600301545b915091506000821180156113945750600081115b6113b05760405162461bcd60e51b815260040161043790611aee565b60006103e86113c0600389611a49565b6113ca9190611a60565b905060006113d88289611a82565b90506113e48185611a95565b6113ee8483611a49565b6113f89190611a60565b9650600087116114405760405162461bcd60e51b8152602060048201526013602482015272125b9cdd59999a58da595b9d081bdd5d1c1d5d606a1b6044820152606401610437565b82871061145f5760405162461bcd60e51b815260040161043790611aee565b6040516323b872dd60e01b8152336004820152306024820152604481018990526001600160a01b038b16906323b872dd906064016020604051808303816000875af11580156114b2573d6000803e3d6000fd5b505050506040513d601f19601f820116820180604052508101906114d69190611acc565b6115175760405162461bcd60e51b8152602060048201526012602482015271151c985b9cd9995c881a5b8819985a5b195960721b6044820152606401610437565b81156116135760015460405163095ea7b360e01b81526001600160a01b03918216600482015260248101849052908b169063095ea7b3906044016020604051808303816000875af1158015611570573d6000803e3d6000fd5b505050506040513d601f19601f820116820180604052508101906115949190611acc565b50600154604051631dc1a8e960e11b81526001600160a01b038c811660048301526024820185905290911690633b8351d290604401600060405180830381600087803b1580156115e357600080fd5b505af11580156115f7573d6000803e3d6000fd5b50505050816006600082825461160d9190611a95565b90915550505b60405163a9059cbb60e01b8152336004820152602481018890526001600160a01b038a169063a9059cbb906044016020604051808303816000875af1158015611660573d6000803e3d6000fd5b505050506040513d601f19601f820116820180604052508101906116849190611acc565b6116c65760405162461bcd60e51b8152602060048201526013602482015272151c985b9cd9995c881bdd5d0819985a5b1959606a1b6044820152606401610437565b84546001600160a01b03908116908b160361171557808560020160008282546116ef9190611a95565b925050819055508685600301600082825461170a9190611a82565b9091555061174a9050565b808560030160008282546117299190611a95565b92505081905550868560020160008282546117449190611a82565b90915550505b876005600082825461175c9190611a95565b9091555050604080516001600160a01b03808d1682528b1660208201529081018990526060810188905260808101839052339087907f36d90ab6736dbd42ac28b968350d068640e9aea3f7b807679fe64d2a50dcbb039060a00160405180910390a35050505050506007805460ff191690559392505050565b6060600380548060200260200160405190810160405280929190818152602001828054801561182357602002820191906000526020600020905b81548152602001906001019080831161180f575b5050505050905090565b60008160000361183f57506000919050565b6000600261184e846001611a95565b6118589190611a60565b90508291505b81811015611891579050806002816118768186611a60565b6118809190611a95565b61188a9190611a60565b905061185e565b50919050565b80356001600160a01b03811681146118ae57600080fd5b919050565b600080604083850312156118c657600080fd5b823591506118d660208401611897565b90509250929050565b6000602082840312156118f157600080fd5b6118fa82611897565b9392505050565b60006020828403121561191357600080fd5b5035919050565b6000806040838503121561192d57600080fd5b61193683611897565b91506118d660208401611897565b60008060006060848603121561195957600080fd5b61196284611897565b925061197060208501611897565b9150604084013590509250925092565b6000806000806080858703121561199657600080fd5b61199f85611897565b93506119ad60208601611897565b93969395505050506040820135916060013590565b6020808252825182820181905260009190848201906040850190845b818110156119fa578351835292840192918401916001016119de565b50909695505050505050565b60208082526013908201527214185a5c88191bd95cc81b9bdd08195e1a5cdd606a1b604082015260600190565b634e487b7160e01b600052601160045260246000fd5b808202811582820484141761058b5761058b611a33565b600082611a7d57634e487b7160e01b600052601260045260246000fd5b500490565b8181038181111561058b5761058b611a33565b8082018082111561058b5761058b611a33565b6020808252600a90820152695265656e7472616e637960b01b604082015260600190565b600060208284031215611ade57600080fd5b815180151581146118fa57600080fd5b602080825260169082015275496e73756666696369656e74206c697175696469747960501b60408201526060019056fea26469706673582212207fc470bcf2459b5a6a2fc546744069315c80dcc08abd5e81c7fc97be843822cb64736f6c63430008130033",
  "linkReferences": {},
  "deployedLinkReferences": {}
}